{
  "contractName": "AuctionRepository",
  "abi": [
    {
      "anonymous": false,
      "inputs": [
        {
          "indexed": false,
          "internalType": "address",
          "name": "_owner",
          "type": "address"
        },
        {
          "indexed": false,
          "internalType": "uint256",
          "name": "_auctionId",
          "type": "uint256"
        }
      ],
      "name": "AuctionCanceled",
      "type": "event"
    },
    {
      "anonymous": false,
      "inputs": [
        {
          "indexed": false,
          "internalType": "address",
          "name": "_owner",
          "type": "address"
        },
        {
          "indexed": false,
          "internalType": "uint256",
          "name": "_auctionId",
          "type": "uint256"
        }
      ],
      "name": "AuctionCreated",
      "type": "event"
    },
    {
      "anonymous": false,
      "inputs": [
        {
          "indexed": false,
          "internalType": "address",
          "name": "_finalizer",
          "type": "address"
        },
        {
          "indexed": false,
          "internalType": "uint256",
          "name": "_auctionId",
          "type": "uint256"
        }
      ],
      "name": "AuctionFinalized",
      "type": "event"
    },
    {
      "anonymous": false,
      "inputs": [
        {
          "indexed": false,
          "internalType": "address",
          "name": "_from",
          "type": "address"
        },
        {
          "indexed": false,
          "internalType": "uint256",
          "name": "_auctionId",
          "type": "uint256"
        }
      ],
      "name": "BidSuccess",
      "type": "event"
    },
    {
      "inputs": [
        {
          "internalType": "uint256",
          "name": "",
          "type": "uint256"
        },
        {
          "internalType": "uint256",
          "name": "",
          "type": "uint256"
        }
      ],
      "name": "auctionBids",
      "outputs": [
        {
          "internalType": "address payable",
          "name": "from",
          "type": "address"
        },
        {
          "internalType": "uint256",
          "name": "amount",
          "type": "uint256"
        }
      ],
      "stateMutability": "view",
      "type": "function",
      "constant": true
    },
    {
      "inputs": [
        {
          "internalType": "address",
          "name": "",
          "type": "address"
        },
        {
          "internalType": "uint256",
          "name": "",
          "type": "uint256"
        }
      ],
      "name": "auctionOwner",
      "outputs": [
        {
          "internalType": "uint256",
          "name": "",
          "type": "uint256"
        }
      ],
      "stateMutability": "view",
      "type": "function",
      "constant": true
    },
    {
      "inputs": [
        {
          "internalType": "uint256",
          "name": "",
          "type": "uint256"
        }
      ],
      "name": "auctions",
      "outputs": [
        {
          "internalType": "string",
          "name": "name",
          "type": "string"
        },
        {
          "internalType": "uint256",
          "name": "endTime",
          "type": "uint256"
        },
        {
          "internalType": "uint256",
          "name": "startPrice",
          "type": "uint256"
        },
        {
          "internalType": "string",
          "name": "metadata",
          "type": "string"
        },
        {
          "internalType": "uint256",
          "name": "deedId",
          "type": "uint256"
        },
        {
          "internalType": "address",
          "name": "deedRepositoryAddress",
          "type": "address"
        },
        {
          "internalType": "address payable",
          "name": "owner",
          "type": "address"
        },
        {
          "internalType": "bool",
          "name": "active",
          "type": "bool"
        },
        {
          "internalType": "bool",
          "name": "finalized",
          "type": "bool"
        }
      ],
      "stateMutability": "view",
      "type": "function",
      "constant": true
    },
    {
      "stateMutability": "payable",
      "type": "receive",
      "payable": true
    },
    {
      "inputs": [
        {
          "internalType": "address",
          "name": "_deedRepositoryAddress",
          "type": "address"
        },
        {
          "internalType": "uint256",
          "name": "_deedId",
          "type": "uint256"
        },
        {
          "internalType": "string",
          "name": "_auctionTitle",
          "type": "string"
        },
        {
          "internalType": "string",
          "name": "_metadata",
          "type": "string"
        },
        {
          "internalType": "uint256",
          "name": "_startPrice",
          "type": "uint256"
        },
        {
          "internalType": "uint256",
          "name": "_endTime",
          "type": "uint256"
        }
      ],
      "name": "createAuction",
      "outputs": [
        {
          "internalType": "bool",
          "name": "",
          "type": "bool"
        }
      ],
      "stateMutability": "nonpayable",
      "type": "function"
    },
    {
      "inputs": [],
      "name": "getCount",
      "outputs": [
        {
          "internalType": "uint256",
          "name": "",
          "type": "uint256"
        }
      ],
      "stateMutability": "view",
      "type": "function",
      "constant": true
    },
    {
      "inputs": [
        {
          "internalType": "address",
          "name": "_owner",
          "type": "address"
        }
      ],
      "name": "getAuctionsOf",
      "outputs": [
        {
          "internalType": "uint256[]",
          "name": "",
          "type": "uint256[]"
        }
      ],
      "stateMutability": "view",
      "type": "function",
      "constant": true
    },
    {
      "inputs": [
        {
          "internalType": "address",
          "name": "_owner",
          "type": "address"
        }
      ],
      "name": "getAuctionsCountOfOwner",
      "outputs": [
        {
          "internalType": "uint256",
          "name": "",
          "type": "uint256"
        }
      ],
      "stateMutability": "view",
      "type": "function",
      "constant": true
    },
    {
      "inputs": [
        {
          "internalType": "uint256",
          "name": "_auctionId",
          "type": "uint256"
        }
      ],
      "name": "getAuctionById",
      "outputs": [
        {
          "internalType": "string",
          "name": "name",
          "type": "string"
        },
        {
          "internalType": "uint256",
          "name": "endTime",
          "type": "uint256"
        },
        {
          "internalType": "uint256",
          "name": "startPrice",
          "type": "uint256"
        },
        {
          "internalType": "string",
          "name": "metadata",
          "type": "string"
        },
        {
          "internalType": "uint256",
          "name": "deedId",
          "type": "uint256"
        },
        {
          "internalType": "address",
          "name": "deedRepositoryAddress",
          "type": "address"
        },
        {
          "internalType": "address",
          "name": "owner",
          "type": "address"
        },
        {
          "internalType": "bool",
          "name": "active",
          "type": "bool"
        },
        {
          "internalType": "bool",
          "name": "finalized",
          "type": "bool"
        }
      ],
      "stateMutability": "view",
      "type": "function",
      "constant": true
    },
    {
      "inputs": [
        {
          "internalType": "uint256",
          "name": "_auctionId",
          "type": "uint256"
        }
      ],
      "name": "bidOnAuction",
      "outputs": [],
      "stateMutability": "payable",
      "type": "function",
      "payable": true
    },
    {
      "inputs": [
        {
          "internalType": "uint256",
          "name": "_auctionId",
          "type": "uint256"
        }
      ],
      "name": "getBidsCount",
      "outputs": [
        {
          "internalType": "uint256",
          "name": "",
          "type": "uint256"
        }
      ],
      "stateMutability": "view",
      "type": "function",
      "constant": true
    },
    {
      "inputs": [
        {
          "internalType": "uint256",
          "name": "_auctionId",
          "type": "uint256"
        }
      ],
      "name": "getCurrentBid",
      "outputs": [
        {
          "internalType": "uint256",
          "name": "",
          "type": "uint256"
        },
        {
          "internalType": "address",
          "name": "",
          "type": "address"
        }
      ],
      "stateMutability": "view",
      "type": "function",
      "constant": true
    },
    {
      "inputs": [
        {
          "internalType": "uint256",
          "name": "_auctionId",
          "type": "uint256"
        }
      ],
      "name": "cancelAuction",
      "outputs": [],
      "stateMutability": "nonpayable",
      "type": "function"
    },
    {
      "inputs": [
        {
          "internalType": "uint256",
          "name": "_auctionId",
          "type": "uint256"
        }
      ],
      "name": "finalizeAuction",
      "outputs": [],
      "stateMutability": "nonpayable",
      "type": "function"
    }
  ],
  "bytecode": "0x608060405234801561001057600080fd5b50612a4c806100206000396000f3fe6080604052600436106100c65760003560e01c8063a87d942c1161007f578063d56aa55811610059578063d56aa558146102fa578063da4e364f14610337578063e1b9658114610375578063e8083863146103b257610106565b8063a87d942c14610255578063b1b61bfa14610280578063c8756cda146102bd57610106565b806318111ada1461010b57806326b7aeea146101505780634008f9c01461016c578063571a26a0146101a95780635f93de49146101ee57806396b5a7551461022c57610106565b36610106576040517f08c379a00000000000000000000000000000000000000000000000000000000081526004016100fd9061244e565b60405180910390fd5b600080fd5b34801561011757600080fd5b50610132600480360381019061012d9190611e77565b6103db565b60405161014799989796959493929190612313565b60405180910390f35b61016a60048036038101906101659190611e77565b6106b3565b005b34801561017857600080fd5b50610193600480360381019061018e9190611e77565b610b3f565b6040516101a0919061252e565b60405180910390f35b3480156101b557600080fd5b506101d060048036038101906101cb9190611e77565b610b5f565b6040516101e599989796959493929190612278565b60405180910390f35b3480156101fa57600080fd5b5061021560048036038101906102109190611ea0565b610d27565b6040516102239291906121b2565b60405180910390f35b34801561023857600080fd5b50610253600480360381019061024e9190611e77565b610d88565b005b34801561026157600080fd5b5061026a611187565b604051610277919061252e565b60405180910390f35b34801561028c57600080fd5b506102a760048036038101906102a29190611d30565b611193565b6040516102b4919061223b565b60405180910390f35b3480156102c957600080fd5b506102e460048036038101906102df9190611d82565b611230565b6040516102f1919061252e565b60405180910390f35b34801561030657600080fd5b50610321600480360381019061031c9190611d30565b611261565b60405161032e919061252e565b60405180910390f35b34801561034357600080fd5b5061035e60048036038101906103599190611e77565b6112ad565b60405161036c929190612549565b60405180910390f35b34801561038157600080fd5b5061039c60048036038101906103979190611dbe565b6113cb565b6040516103a9919061225d565b60405180910390f35b3480156103be57600080fd5b506103d960048036038101906103d49190611e77565b611750565b005b6060600080606060008060008060008060008b81548110610425577f4e487b7100000000000000000000000000000000000000000000000000000000600052603260045260246000fd5b90600052602060002090600702016040518061012001604052908160008201805461044f906126f8565b80601f016020809104026020016040519081016040528092919081815260200182805461047b906126f8565b80156104c85780601f1061049d576101008083540402835291602001916104c8565b820191906000526020600020905b8154815290600101906020018083116104ab57829003601f168201915b5050505050815260200160018201548152602001600282015481526020016003820180546104f5906126f8565b80601f0160208091040260200160405190810160405280929190818152602001828054610521906126f8565b801561056e5780601f106105435761010080835404028352916020019161056e565b820191906000526020600020905b81548152906001019060200180831161055157829003601f168201915b50505050508152602001600482015481526020016005820160009054906101000a900473ffffffffffffffffffffffffffffffffffffffff1673ffffffffffffffffffffffffffffffffffffffff1673ffffffffffffffffffffffffffffffffffffffff1681526020016006820160009054906101000a900473ffffffffffffffffffffffffffffffffffffffff1673ffffffffffffffffffffffffffffffffffffffff1673ffffffffffffffffffffffffffffffffffffffff1681526020016006820160149054906101000a900460ff161515151581526020016006820160159054906101000a900460ff1615151515815250509050806000015181602001518260400151836060015184608001518560a001518660c001518760e00151886101000151995099509950995099509950995099509950509193959799909294969850565b600034905060008083815481106106f3577f4e487b7100000000000000000000000000000000000000000000000000000000600052603260045260246000fd5b906000526020600020906007020190503373ffffffffffffffffffffffffffffffffffffffff168160060160009054906101000a900473ffffffffffffffffffffffffffffffffffffffff1673ffffffffffffffffffffffffffffffffffffffff161415610796576040517f08c379a000000000000000000000000000000000000000000000000000000000815260040161078d906124ae565b60405180910390fd5b80600101544211156107dd576040517f08c379a00000000000000000000000000000000000000000000000000000000081526004016107d4906123ee565b60405180910390fd5b8060060160149054906101000a900460ff1661082e576040517f08c379a00000000000000000000000000000000000000000000000000000000081526004016108259061240e565b60405180910390fd5b60006001600085815260200190815260200160002080549050905060008260020154905061085a611bb6565b600083111561093d57600160008781526020019081526020016000206001846108839190612628565b815481106108ba577f4e487b7100000000000000000000000000000000000000000000000000000000600052603260045260246000fd5b90600052602060002090600202016040518060400160405290816000820160009054906101000a900473ffffffffffffffffffffffffffffffffffffffff1673ffffffffffffffffffffffffffffffffffffffff1673ffffffffffffffffffffffffffffffffffffffff1681526020016001820154815250509050806020015191505b81851161097f576040517f08c379a0000000000000000000000000000000000000000000000000000000008152600401610976906123ce565b60405180910390fd5b6000831115610a3e576000816000015173ffffffffffffffffffffffffffffffffffffffff1682602001516040516109b69061219d565b60006040518083038185875af1925050503d80600081146109f3576040519150601f19603f3d011682016040523d82523d6000602084013e6109f8565b606091505b5050905080610a3c576040517f08c379a0000000000000000000000000000000000000000000000000000000008152600401610a33906124ce565b60405180910390fd5b505b600060405180604001604052803373ffffffffffffffffffffffffffffffffffffffff1681526020018781525090506001600088815260200190815260200160002081908060018154018082558091505060019003906000526020600020906002020160009091909190915060008201518160000160006101000a81548173ffffffffffffffffffffffffffffffffffffffff021916908373ffffffffffffffffffffffffffffffffffffffff1602179055506020820151816001015550507f5762e6a7d331cd17a1761e94de3ea3b85e90ee6cdd9d1204e361cc650689d4633388604051610b2e929190612212565b60405180910390a150505050505050565b600060016000838152602001908152602001600020805490509050919050565b60008181548110610b6f57600080fd5b9060005260206000209060070201600091509050806000018054610b92906126f8565b80601f0160208091040260200160405190810160405280929190818152602001828054610bbe906126f8565b8015610c0b5780601f10610be057610100808354040283529160200191610c0b565b820191906000526020600020905b815481529060010190602001808311610bee57829003601f168201915b505050505090806001015490806002015490806003018054610c2c906126f8565b80601f0160208091040260200160405190810160405280929190818152602001828054610c58906126f8565b8015610ca55780601f10610c7a57610100808354040283529160200191610ca5565b820191906000526020600020905b815481529060010190602001808311610c8857829003601f168201915b5050505050908060040154908060050160009054906101000a900473ffffffffffffffffffffffffffffffffffffffff16908060060160009054906101000a900473ffffffffffffffffffffffffffffffffffffffff16908060060160149054906101000a900460ff16908060060160159054906101000a900460ff16905089565b60016020528160005260406000208181548110610d4357600080fd5b9060005260206000209060020201600091509150508060000160009054906101000a900473ffffffffffffffffffffffffffffffffffffffff16908060010154905082565b803373ffffffffffffffffffffffffffffffffffffffff1660008281548110610dda577f4e487b7100000000000000000000000000000000000000000000000000000000600052603260045260246000fd5b906000526020600020906007020160060160009054906101000a900473ffffffffffffffffffffffffffffffffffffffff1673ffffffffffffffffffffffffffffffffffffffff1614610e62576040517f08c379a0000000000000000000000000000000000000000000000000000000008152600401610e599061246e565b60405180910390fd5b6000808381548110610e9d577f4e487b7100000000000000000000000000000000000000000000000000000000600052603260045260246000fd5b906000526020600020906007020190508060060160149054906101000a900460ff16610efe576040517f08c379a0000000000000000000000000000000000000000000000000000000008152600401610ef59061240e565b60405180910390fd5b60006001600085815260200190815260200160002080549050905060008111156110cd57600060016000868152602001908152602001600020600183610f449190612628565b81548110610f7b577f4e487b7100000000000000000000000000000000000000000000000000000000600052603260045260246000fd5b90600052602060002090600202016040518060400160405290816000820160009054906101000a900473ffffffffffffffffffffffffffffffffffffffff1673ffffffffffffffffffffffffffffffffffffffff1673ffffffffffffffffffffffffffffffffffffffff168152602001600182015481525050905060008360060160009054906101000a900473ffffffffffffffffffffffffffffffffffffffff1673ffffffffffffffffffffffffffffffffffffffff1682602001516040516110449061219d565b60006040518083038185875af1925050503d8060008114611081576040519150601f19603f3d011682016040523d82523d6000602084013e611086565b606091505b50509050806110ca576040517f08c379a00000000000000000000000000000000000000000000000000000000081526004016110c1906124ee565b60405180910390fd5b50505b611125308360060160009054906101000a900473ffffffffffffffffffffffffffffffffffffffff168460050160009054906101000a900473ffffffffffffffffffffffffffffffffffffffff168560040154611ac7565b156111815760008260060160146101000a81548160ff0219169083151502179055507f39e6c898ce035bbacd9ba4f9753534f8c9f976e0ff70be83cfe887f235afa1d33385604051611178929190612212565b60405180910390a15b50505050565b60008080549050905090565b60606000600260008473ffffffffffffffffffffffffffffffffffffffff1673ffffffffffffffffffffffffffffffffffffffff16815260200190815260200160002080548060200260200160405190810160405280929190818152602001828054801561122057602002820191906000526020600020905b81548152602001906001019080831161120c575b5050505050905080915050919050565b6002602052816000526040600020818154811061124c57600080fd5b90600052602060002001600091509150505481565b6000600260008373ffffffffffffffffffffffffffffffffffffffff1673ffffffffffffffffffffffffffffffffffffffff168152602001908152602001600020805490509050919050565b60008060006001600085815260200190815260200160002080549050905060008111156113bd576000600160008681526020019081526020016000206001836112f69190612628565b8154811061132d577f4e487b7100000000000000000000000000000000000000000000000000000000600052603260045260246000fd5b90600052602060002090600202016040518060400160405290816000820160009054906101000a900473ffffffffffffffffffffffffffffffffffffffff1673ffffffffffffffffffffffffffffffffffffffff1673ffffffffffffffffffffffffffffffffffffffff1681526020016001820154815250509050806020015181600001519350935050506113c6565b60008092509250505b915091565b6000868660008273ffffffffffffffffffffffffffffffffffffffff16636352211e836040518263ffffffff1660e01b815260040161140a919061252e565b60206040518083038186803b15801561142257600080fd5b505afa158015611436573d6000803e3d6000fd5b505050506040513d601f19601f8201168201806040525081019061145a9190611d59565b90503073ffffffffffffffffffffffffffffffffffffffff168173ffffffffffffffffffffffffffffffffffffffff16146114ca576040517f08c379a00000000000000000000000000000000000000000000000000000000081526004016114c1906123ae565b60405180910390fd5b60008080549050905060006040518061012001604052808b81526020018881526020018981526020018a81526020018c81526020018d73ffffffffffffffffffffffffffffffffffffffff1681526020013373ffffffffffffffffffffffffffffffffffffffff16815260200160011515815260200160001515815250905060008190806001815401808255809150506001900390600052602060002090600702016000909190919091506000820151816000019080519060200190611591929190611be6565b50602082015181600101556040820151816002015560608201518160030190805190602001906115c2929190611be6565b506080820151816004015560a08201518160050160006101000a81548173ffffffffffffffffffffffffffffffffffffffff021916908373ffffffffffffffffffffffffffffffffffffffff16021790555060c08201518160060160006101000a81548173ffffffffffffffffffffffffffffffffffffffff021916908373ffffffffffffffffffffffffffffffffffffffff16021790555060e08201518160060160146101000a81548160ff0219169083151502179055506101008201518160060160156101000a81548160ff0219169083151502179055505050600260003373ffffffffffffffffffffffffffffffffffffffff1673ffffffffffffffffffffffffffffffffffffffff1681526020019081526020016000208290806001815401808255809150506001900390600052602060002001600090919091909150557f3249a06bd478adf780bb7930214ad005e9cfa517d63221c0b77f27199d1a58b33383604051611735929190612212565b60405180910390a16001955050505050509695505050505050565b600080828154811061178b577f4e487b7100000000000000000000000000000000000000000000000000000000600052603260045260246000fd5b9060005260206000209060070201905080600101544210156117e2576040517f08c379a00000000000000000000000000000000000000000000000000000000081526004016117d99061242e565b60405180910390fd5b8060060160159054906101000a900460ff1615611834576040517f08c379a000000000000000000000000000000000000000000000000000000000815260040161182b9061248e565b60405180910390fd5b60006001600084815260200190815260200160002080549050905060008114156118665761186183610d88565b611ac2565b6000600160008581526020019081526020016000206001836118889190612628565b815481106118bf577f4e487b7100000000000000000000000000000000000000000000000000000000600052603260045260246000fd5b90600052602060002090600202016040518060400160405290816000820160009054906101000a900473ffffffffffffffffffffffffffffffffffffffff1673ffffffffffffffffffffffffffffffffffffffff1673ffffffffffffffffffffffffffffffffffffffff168152602001600182015481525050905060008360060160009054906101000a900473ffffffffffffffffffffffffffffffffffffffff1673ffffffffffffffffffffffffffffffffffffffff1682602001516040516119889061219d565b60006040518083038185875af1925050503d80600081146119c5576040519150601f19603f3d011682016040523d82523d6000602084013e6119ca565b606091505b5050905080611a0e576040517f08c379a0000000000000000000000000000000000000000000000000000000008152600401611a059061250e565b60405180910390fd5b611a463083600001518660050160009054906101000a900473ffffffffffffffffffffffffffffffffffffffff168760040154611ac7565b15611abf5760008460060160146101000a81548160ff02191690831515021790555060018460060160156101000a81548160ff0219169083151502179055507f357afab190ee87fe0ef1c717f2728d2904d9e415a069d99f4d9382873cb3279d3386604051611ab6929190612212565b60405180910390a15b50505b505050565b6000808390508073ffffffffffffffffffffffffffffffffffffffff1663095ea7b386856040518363ffffffff1660e01b8152600401611b08929190612212565b600060405180830381600087803b158015611b2257600080fd5b505af1158015611b36573d6000803e3d6000fd5b505050508073ffffffffffffffffffffffffffffffffffffffff166323b872dd8787866040518463ffffffff1660e01b8152600401611b77939291906121db565b600060405180830381600087803b158015611b9157600080fd5b505af1158015611ba5573d6000803e3d6000fd5b505050506001915050949350505050565b6040518060400160405280600073ffffffffffffffffffffffffffffffffffffffff168152602001600081525090565b828054611bf2906126f8565b90600052602060002090601f016020900481019282611c145760008555611c5b565b82601f10611c2d57805160ff1916838001178555611c5b565b82800160010185558215611c5b579182015b82811115611c5a578251825591602001919060010190611c3f565b5b509050611c689190611c6c565b5090565b5b80821115611c85576000816000905550600101611c6d565b5090565b6000611c9c611c9784612597565b612572565b905082815260208101848484011115611cb457600080fd5b611cbf8482856126b6565b509392505050565b600081359050611cd6816129e8565b92915050565b600081519050611ceb816129e8565b92915050565b600082601f830112611d0257600080fd5b8135611d12848260208601611c89565b91505092915050565b600081359050611d2a816129ff565b92915050565b600060208284031215611d4257600080fd5b6000611d5084828501611cc7565b91505092915050565b600060208284031215611d6b57600080fd5b6000611d7984828501611cdc565b91505092915050565b60008060408385031215611d9557600080fd5b6000611da385828601611cc7565b9250506020611db485828601611d1b565b9150509250929050565b60008060008060008060c08789031215611dd757600080fd5b6000611de589828a01611cc7565b9650506020611df689828a01611d1b565b955050604087013567ffffffffffffffff811115611e1357600080fd5b611e1f89828a01611cf1565b945050606087013567ffffffffffffffff811115611e3c57600080fd5b611e4889828a01611cf1565b9350506080611e5989828a01611d1b565b92505060a0611e6a89828a01611d1b565b9150509295509295509295565b600060208284031215611e8957600080fd5b6000611e9784828501611d1b565b91505092915050565b60008060408385031215611eb357600080fd5b6000611ec185828601611d1b565b9250506020611ed285828601611d1b565b9150509250929050565b6000611ee8838361217f565b60208301905092915050565b611efd8161266e565b82525050565b611f0c8161265c565b82525050565b6000611f1d826125d8565b611f2781856125fb565b9350611f32836125c8565b8060005b83811015611f63578151611f4a8882611edc565b9750611f55836125ee565b925050600181019050611f36565b5085935050505092915050565b611f7981612680565b82525050565b6000611f8a826125e3565b611f948185612617565b9350611fa48185602086016126c5565b611fad816127e8565b840191505092915050565b6000611fc5601e83612617565b9150611fd0826127f9565b602082019050919050565b6000611fe8601283612617565b9150611ff382612822565b602082019050919050565b600061200b601183612617565b91506120168261284b565b602082019050919050565b600061202e601583612617565b915061203982612874565b602082019050919050565b6000612051601983612617565b915061205c8261289d565b602082019050919050565b6000612074601b83612617565b915061207f826128c6565b602082019050919050565b6000612097601583612617565b91506120a2826128ef565b602082019050919050565b60006120ba601c83612617565b91506120c582612918565b602082019050919050565b60006120dd601083612617565b91506120e882612941565b602082019050919050565b600061210060008361260c565b915061210b8261296a565b600082019050919050565b6000612123602083612617565b915061212e8261296d565b602082019050919050565b6000612146601c83612617565b915061215182612996565b602082019050919050565b6000612169602083612617565b9150612174826129bf565b602082019050919050565b612188816126ac565b82525050565b612197816126ac565b82525050565b60006121a8826120f3565b9150819050919050565b60006040820190506121c76000830185611ef4565b6121d4602083018461218e565b9392505050565b60006060820190506121f06000830186611f03565b6121fd6020830185611f03565b61220a604083018461218e565b949350505050565b60006040820190506122276000830185611f03565b612234602083018461218e565b9392505050565b600060208201905081810360008301526122558184611f12565b905092915050565b60006020820190506122726000830184611f70565b92915050565b6000610120820190508181036000830152612293818c611f7f565b90506122a2602083018b61218e565b6122af604083018a61218e565b81810360608301526122c18189611f7f565b90506122d0608083018861218e565b6122dd60a0830187611f03565b6122ea60c0830186611ef4565b6122f760e0830185611f70565b612305610100830184611f70565b9a9950505050505050505050565b600061012082019050818103600083015261232e818c611f7f565b905061233d602083018b61218e565b61234a604083018a61218e565b818103606083015261235c8189611f7f565b905061236b608083018861218e565b61237860a0830187611f03565b61238560c0830186611f03565b61239260e0830185611f70565b6123a0610100830184611f70565b9a9950505050505050505050565b600060208201905081810360008301526123c781611fb8565b9050919050565b600060208201905081810360008301526123e781611fdb565b9050919050565b6000602082019050818103600083015261240781611ffe565b9050919050565b6000602082019050818103600083015261242781612021565b9050919050565b6000602082019050818103600083015261244781612044565b9050919050565b6000602082019050818103600083015261246781612067565b9050919050565b600060208201905081810360008301526124878161208a565b9050919050565b600060208201905081810360008301526124a7816120ad565b9050919050565b600060208201905081810360008301526124c7816120d0565b9050919050565b600060208201905081810360008301526124e781612116565b9050919050565b6000602082019050818103600083015261250781612139565b9050919050565b600060208201905081810360008301526125278161215c565b9050919050565b6000602082019050612543600083018461218e565b92915050565b600060408201905061255e600083018561218e565b61256b6020830184611f03565b9392505050565b600061257c61258d565b9050612588828261272a565b919050565b6000604051905090565b600067ffffffffffffffff8211156125b2576125b16127b9565b5b6125bb826127e8565b9050602081019050919050565b6000819050602082019050919050565b600081519050919050565b600081519050919050565b6000602082019050919050565b600082825260208201905092915050565b600081905092915050565b600082825260208201905092915050565b6000612633826126ac565b915061263e836126ac565b9250828210156126515761265061275b565b5b828203905092915050565b60006126678261268c565b9050919050565b60006126798261268c565b9050919050565b60008115159050919050565b600073ffffffffffffffffffffffffffffffffffffffff82169050919050565b6000819050919050565b82818337600083830152505050565b60005b838110156126e35780820151818401526020810190506126c8565b838111156126f2576000848401525b50505050565b6000600282049050600182168061271057607f821691505b602082108114156127245761272361278a565b5b50919050565b612733826127e8565b810181811067ffffffffffffffff82111715612752576127516127b9565b5b80604052505050565b7f4e487b7100000000000000000000000000000000000000000000000000000000600052601160045260246000fd5b7f4e487b7100000000000000000000000000000000000000000000000000000000600052602260045260246000fd5b7f4e487b7100000000000000000000000000000000000000000000000000000000600052604160045260246000fd5b6000601f19601f8301169050919050565b7f436f6e7472616374206973206e6f74207468652064656564206f776e65720000600082015250565b7f42696420616d6f756e7420746f6f206c6f770000000000000000000000000000600082015250565b7f41756374696f6e2068617320656e646564000000000000000000000000000000600082015250565b7f41756374696f6e206973206e6f74206163746976650000000000000000000000600082015250565b7f41756374696f6e20686173206e6f7420656e6465642079657400000000000000600082015250565b7f446972656374207061796d656e7473206e6f7420616c6c6f7765640000000000600082015250565b7f4e6f74207468652061756374696f6e206f776e65720000000000000000000000600082015250565b7f41756374696f6e20697320616c72656164792066696e616c697a656400000000600082015250565b7f4f776e65722063616e6e6f742062696400000000000000000000000000000000600082015250565b50565b7f526566756e6420746f2070726576696f757320626964646572206661696c6564600082015250565b7f526566756e6420746f206c61737420626964646572206661696c656400000000600082015250565b7f5472616e7366657220746f2061756374696f6e206f776e6572206661696c6564600082015250565b6129f18161265c565b81146129fc57600080fd5b50565b612a08816126ac565b8114612a1357600080fd5b5056fea26469706673582212206458e16395c3004c5ba966338f96aad2b2de0f4c1fcd569c7bbd805311fccafb64736f6c63430008010033",
  "immutableReferences": {},
  "source": "// - The `Auction` struct is declared as `memory` in several functions like `bidOnAuction`, `cancelAuction`, and `finalizeAuction`. This means you are working on a local copy of the auction and not modifying the actual data in storage. You should use `storage` instead to modify the state of the auction within these functions. \n\n// **Refunding Bidders:**\n// - In the refund logic, you correctly use the `.call` method for transferring Ether. However, in the `finalizeAuction` and `cancelAuction` functions, the `revert(\"Refund failed\");` message should be adjusted to reflect that it's the transfer to the auction owner or bidder that failed, not a refund.\n\n// **Edge Cases for Canceling and Finalizing Auctions:**\n// - It's good to add conditions for whether an auction has already been finalized or canceled. For example, in `finalizeAuction`, check if the auction is already finalized before allowing the function to proceed. Similarly, ensure canceled auctions cannot be finalized.\n\n// - Use `storage` instead of `memory` where you are modifying the auction data.\n\n// - **Storage instead of memory**: In `bidOnAuction`, `cancelAuction`, and `finalizeAuction`, I switched from `memory` to `storage` when dealing with the `Auction` struct to ensure that i am working with the actual auction data on the blockchain.\n\n// SPDX-License-Identifier: MIT\npragma solidity ^0.8.0;\n\nimport \"./DeedRepository.sol\";\n\ncontract AuctionRepository {\n  struct Bid {\n    address payable from;\n    uint256 amount;\n  }\n\n  struct Auction {\n    string name;\n    uint256 endTime;\n    uint256 startPrice;\n    string metadata;\n    uint256 deedId;\n    address deedRepositoryAddress;\n    address payable owner;\n    bool active;\n    bool finalized;\n  }\n\n\t// Array storing all auctions\n\tAuction[] public auctions;\n\t// Mapping from auction index to user bids array\n\tmapping(uint256 => Bid[]) public auctionBids;\n\t// Mapping from owner to a list/array of owned auctions\n\tmapping(address => uint[]) public auctionOwner;\n\n\tevent BidSuccess(address _from, uint _auctionId);\n\tevent AuctionCreated(address _owner, uint _auctionId);\n\tevent AuctionCanceled(address _owner, uint _auctionId);\n\tevent AuctionFinalized(address _finalizer, uint _auctionId);\n\n\t/**\n  * @dev Guarantees msg.sender is owner of the given auction\n  * @param _auctionId uint ID of the auction to validate its ownership belongs to msg.sender\n  */\n\tmodifier isOwner(uint _auctionId) {\n\t\trequire(auctions[_auctionId].owner == msg.sender, \"Not the auction owner\");\n\t\t_;\n\t}\n\n\t/**\n  * @dev Guarantees this contract is owner of the given deed/token\n  * @param _deedRepositoryAddress address of the deed repository to validate from\n  * @param _deedId uint256 ID of the deed which has been registered in the deed repository\n  */\n\tmodifier contractIsDeedOwner(address _deedRepositoryAddress, uint256 _deedId) {\n\t\taddress deedOwner = DeedRepository(_deedRepositoryAddress).ownerOf(_deedId);\n\t\trequire(deedOwner == address(this), \"Contract is not the deed owner\");\n\t\t_;\n\t}\n\n\t/**\n  * @dev Creates an auction with the given informatin\n  * @param _deedRepositoryAddress address of the DeedRepository contract\n  * @param _deedId uint256 of the deed registered in DeedRepository\n  * @param _auctionTitle string containing auction title\n  * @param _metadata string containing auction metadata \n  * @param _startPrice uint256 starting price of the auction\n  * @param _endTime uint is the timestamp in which the auction expires\n  * @return bool whether the auction is created\n  */\n\tfunction createAuction(\n\t\taddress _deedRepositoryAddress,\n\t\tuint256 _deedId,\n\t\tstring memory _auctionTitle,\n\t\tstring memory _metadata,\n\t\tuint256 _startPrice,\n\t\tuint _endTime\n\t) public contractIsDeedOwner(_deedRepositoryAddress, _deedId) returns (bool) {\n\t\t\tuint auctionId = auctions.length;\n\n\t\tAuction memory newAuction = Auction({\n\t\t\tname: _auctionTitle,\n\t\t\tendTime: _endTime,\n\t\t\tstartPrice: _startPrice,\n\t\t\tmetadata: _metadata,\n\t\t\tdeedId: _deedId,\n\t\t\tdeedRepositoryAddress: _deedRepositoryAddress,\n\t\t\towner: payable(msg.sender),\n\t\t\tactive: true,\n\t\t\tfinalized: false\n\t\t});\n\n\t\tauctions.push(newAuction);\n\t\tauctionOwner[msg.sender].push(auctionId);\n\n\t\temit AuctionCreated(msg.sender, auctionId);\n\t\treturn true;\n\t}\n\n\t/**\n\t* @dev Gets the length of auctions\n\t* @return uint representing the auction count\n\t*/\n\tfunction getCount() public view returns(uint) {\n\t\treturn auctions.length;\n\t}\n\n\t/**\n\t* @dev Gets an array of owned auctions\n\t* @param _owner address of the auction owner\n\t*/\n\tfunction getAuctionsOf(address _owner) public view returns(uint[] memory) {\n\t\tuint[] memory ownedAuctions = auctionOwner[_owner];\n\t\treturn ownedAuctions;\n\t}\n\n\t/**\n\t* @dev Gets the total number of auctions owned by an address\n\t* @param _owner address of the owner\n\t* @return uint total number of auctions\n\t*/\n\tfunction getAuctionsCountOfOwner(address _owner) public view returns(uint) {\n\t\treturn auctionOwner[_owner].length;\n\t}\n\n\t/**\n * @dev Returns details of an auction by its ID\n * @param _auctionId The ID of the auction\n * @return name Name of the auction\n * @return endTime Timestamp of when the auction expires\n * @return startPrice Starting price of the auction\n * @return metadata Metadata related to the auction\n * @return deedId ID of the deed being auctioned\n * @return deedRepositoryAddress Address of the deed repository contract\n * @return owner Owner of the auction\n * @return active Boolean indicating if the auction is active\n * @return finalized Boolean indicating if the auction has been finalized\n */\n\tfunction getAuctionById(uint _auctionId) public view returns(\n\t\tstring memory name,\n\t\tuint256 endTime,\n\t\tuint256 startPrice,\n\t\tstring memory metadata,\n\t\tuint256 deedId,\n\t\taddress deedRepositoryAddress,\n\t\taddress owner,\n\t\tbool active,\n\t\tbool finalized) {\n\n\t\tAuction memory auc = auctions[_auctionId];\n\t\treturn (\n\t\t\tauc.name,\n\t\t\tauc.endTime,\n\t\t\tauc.startPrice,\n\t\t\tauc.metadata,\n\t\t\tauc.deedId,\n\t\t\tauc.deedRepositoryAddress,\n\t\t\tauc.owner,\n\t\t\tauc.active,\n\t\t\tauc.finalized\n    );\n\t}\n\n\t/**\n  * @dev Bidder sends bid on an auction\n  * @dev Auction should be active and not ended\n  * @dev Refund previous bidder if a new bid is valid and placed.\n  * @param _auctionId uint ID of the created auction\n  */\n\tfunction bidOnAuction(uint _auctionId) external payable {\n\t\t//store this very bid amount contained in msg.value\n\t\tuint256 ethAmountSent = msg.value;\n\t\tAuction storage myAuction = auctions[_auctionId];\n\n\t\t// owner can't bid on their auctions\n\t\trequire(myAuction.owner != msg.sender, \"Owner cannot bid\");\n\t\t// reject if auction is expired\n\t\trequire(block.timestamp <= myAuction.endTime, \"Auction has ended\");\n\t\t// reject if bid is inactive\n\t\trequire(myAuction.active, \"Auction is not active\");\n\n\t\t/* track previous bids and get current bid amount\n\t\tif not available revert to bid start price*/\n\t\tuint bidsLength = auctionBids[_auctionId].length;\n\t\tuint256 minimumBidAmount = myAuction.startPrice;\n\t\t// last bid details\n\t\tBid memory lastBid;\n\n\t\t//if there are previous bids, retrieve the last bid \n\t\t// and set minimum bid requirement\n\t\tif (bidsLength > 0) {\n\t\t\tlastBid = auctionBids[_auctionId][bidsLength - 1];\n\t\t\tminimumBidAmount = lastBid.amount;\n\t\t}\n\n\t\t//if this very bid amount is lower than the minimum bid amount\n\t\trequire(ethAmountSent > minimumBidAmount, \"Bid amount too low\");\n\n\t\t// refund the last bidder since your bid amount is higher\n\t\tif (bidsLength > 0) {\n\t\t\t(bool success, ) = lastBid.from.call{value: lastBid.amount}(\"\");\n\t\t\tif (!success) {\n\t\t\t\trevert(\"Refund to previous bidder failed\");\n\t\t\t}\n\t\t}\n\n\t\tBid memory newBid = Bid({\n\t\t\tfrom: payable(msg.sender),\n\t\t\tamount: ethAmountSent\n\t\t});\n\n\t\t// store your new bid then adds this new bid to the auction\n\t\tauctionBids[_auctionId].push(newBid);\n\n\t\temit BidSuccess(msg.sender, _auctionId);\n\t}\n\n\t/**\n\t* @dev Gets the bid counts of a given auction\n\t* @param _auctionId uint ID of the auction\n\t*/\n\tfunction getBidsCount(uint _auctionId) public view returns(uint) {\n\t\treturn auctionBids[_auctionId].length;\n\t}\n\n\t/**\n\t* @dev Gets an array of owned auctions\n\t* @param _auctionId uint of the auction owner\n\t* @return amount uint256, address of last bidder\n\t*/\n\tfunction getCurrentBid(uint _auctionId) public view returns(uint256, address) {\n\t\tuint bidsLength = auctionBids[_auctionId].length;\n\t\t// if there are bids refund the last bid\n\t\tif( bidsLength > 0 ) {\n\t\t\tBid memory lastBid = auctionBids[_auctionId][bidsLength - 1];\n\t\t\treturn (lastBid.amount, lastBid.from);\n\t\t}\n\t\treturn (uint256(0), address(0));\n\t}\n\n\tfunction cancelAuction(uint _auctionId) public isOwner(_auctionId) {\n\t\tAuction storage myAuction = auctions[_auctionId];\n\t\trequire(myAuction.active, \"Auction is not active\");\n\n\t\tuint bidsLength = auctionBids[_auctionId].length;\n\n\t\tif (bidsLength > 0) {\n\t\t\tBid memory lastBid = auctionBids[_auctionId][bidsLength - 1];\n\t\t\t(bool success, ) = myAuction.owner.call{value: lastBid.amount}(\"\");\n\t\t\tif (!success) {\n\t\t\t\trevert(\"Refund to last bidder failed\");\n\t\t\t}\n\t\t}\n\n\t\tif (approveAndTransfer(address(this), myAuction.owner, myAuction.deedRepositoryAddress, myAuction.deedId)) {\n\t\t\tmyAuction.active = false;\n\t\t\temit AuctionCanceled(msg.sender, _auctionId);\n\t\t}\n\t}\n\n\tfunction finalizeAuction(uint _auctionId) public {\n\t\tAuction storage myAuction = auctions[_auctionId];\n\t\trequire(block.timestamp >= myAuction.endTime, \"Auction has not ended yet\");\n\t\trequire(!myAuction.finalized, \"Auction is already finalized\");\n\n\t\tuint bidsLength = auctionBids[_auctionId].length;\n\n\t\tif (bidsLength == 0) {\n\t\t\tcancelAuction(_auctionId);\n\t\t} else {\n\t\t\tBid memory lastBid = auctionBids[_auctionId][bidsLength - 1];\n\t\t\t(bool success, ) = myAuction.owner.call{value: lastBid.amount}(\"\");\n\t\t\tif (!success) {\n\t\t\t\trevert(\"Transfer to auction owner failed\");\n\t\t\t}\n\n\t\t\tif (approveAndTransfer(address(this), lastBid.from, myAuction.deedRepositoryAddress, myAuction.deedId)) {\n\t\t\t\tmyAuction.active = false;\n\t\t\t\tmyAuction.finalized = true;\n\t\t\t\temit AuctionFinalized(msg.sender, _auctionId);\n\t\t\t}\n\t\t}\n\t}\n\n\tfunction approveAndTransfer(\n\t\taddress _from,\n\t\taddress _to,\n\t\taddress _deedRepositoryAddress,\n\t\tuint256 _deedId\n\t) internal returns (bool) {\n\t\tDeedRepository remoteContract = DeedRepository(_deedRepositoryAddress);\n\t\tremoteContract.approve(_to, _deedId);\n\t\tremoteContract.transferFrom(_from, _to, _deedId);\n\t\treturn true;\n\t}\n\n\treceive() external payable {\n\t\trevert(\"Direct payments not allowed\");\n\t}\n}\n",
  "sourcePath": "/home/jide/Desktop/auction-dapp/backend/contracts/AuctionRepository.sol",
  "compiler": {
    "name": "solc",
    "version": "0.8.1+commit.df193b15.Emscripten.clang"
  },
  "schemaVersion": "3.4.16",
  "updatedAt": "2024-09-30T20:53:30.739Z",
  "networkType": "ethereum",
  "devdoc": {
    "kind": "dev",
    "methods": {
      "bidOnAuction(uint256)": {
        "details": "Bidder sends bid on an auctionAuction should be active and not endedRefund previous bidder if a new bid is valid and placed.",
        "params": {
          "_auctionId": "uint ID of the created auction"
        }
      },
      "createAuction(address,uint256,string,string,uint256,uint256)": {
        "details": "Creates an auction with the given informatin",
        "params": {
          "_auctionTitle": "string containing auction title",
          "_deedId": "uint256 of the deed registered in DeedRepository",
          "_deedRepositoryAddress": "address of the DeedRepository contract",
          "_endTime": "uint is the timestamp in which the auction expires",
          "_metadata": "string containing auction metadata ",
          "_startPrice": "uint256 starting price of the auction"
        },
        "returns": {
          "_0": "bool whether the auction is created"
        }
      },
      "getAuctionById(uint256)": {
        "details": "Returns details of an auction by its ID",
        "params": {
          "_auctionId": "The ID of the auction"
        },
        "returns": {
          "active": "Boolean indicating if the auction is active",
          "deedId": "ID of the deed being auctioned",
          "deedRepositoryAddress": "Address of the deed repository contract",
          "endTime": "Timestamp of when the auction expires",
          "finalized": "Boolean indicating if the auction has been finalized",
          "metadata": "Metadata related to the auction",
          "name": "Name of the auction",
          "owner": "Owner of the auction",
          "startPrice": "Starting price of the auction"
        }
      },
      "getAuctionsCountOfOwner(address)": {
        "details": "Gets the total number of auctions owned by an address",
        "params": {
          "_owner": "address of the owner"
        },
        "returns": {
          "_0": "uint total number of auctions"
        }
      },
      "getAuctionsOf(address)": {
        "details": "Gets an array of owned auctions",
        "params": {
          "_owner": "address of the auction owner"
        }
      },
      "getBidsCount(uint256)": {
        "details": "Gets the bid counts of a given auction",
        "params": {
          "_auctionId": "uint ID of the auction"
        }
      },
      "getCount()": {
        "details": "Gets the length of auctions",
        "returns": {
          "_0": "uint representing the auction count"
        }
      },
      "getCurrentBid(uint256)": {
        "details": "Gets an array of owned auctions",
        "params": {
          "_auctionId": "uint of the auction owner"
        },
        "returns": {
          "_0": "amount uint256, address of last bidder"
        }
      }
    },
    "version": 1
  },
  "userdoc": {
    "kind": "user",
    "methods": {},
    "version": 1
  }
}