{
  "contractName": "AuctionRepository",
  "abi": [
    {
      "anonymous": false,
      "inputs": [
        {
          "indexed": false,
          "internalType": "address",
          "name": "_owner",
          "type": "address"
        },
        {
          "indexed": false,
          "internalType": "uint256",
          "name": "_auctionId",
          "type": "uint256"
        }
      ],
      "name": "AuctionCanceled",
      "type": "event"
    },
    {
      "anonymous": false,
      "inputs": [
        {
          "indexed": false,
          "internalType": "address",
          "name": "_owner",
          "type": "address"
        },
        {
          "indexed": false,
          "internalType": "uint256",
          "name": "_auctionId",
          "type": "uint256"
        }
      ],
      "name": "AuctionCreated",
      "type": "event"
    },
    {
      "anonymous": false,
      "inputs": [
        {
          "indexed": false,
          "internalType": "address",
          "name": "_finalizer",
          "type": "address"
        },
        {
          "indexed": false,
          "internalType": "uint256",
          "name": "_auctionId",
          "type": "uint256"
        }
      ],
      "name": "AuctionFinalized",
      "type": "event"
    },
    {
      "anonymous": false,
      "inputs": [
        {
          "indexed": false,
          "internalType": "address",
          "name": "_from",
          "type": "address"
        },
        {
          "indexed": false,
          "internalType": "uint256",
          "name": "_auctionId",
          "type": "uint256"
        }
      ],
      "name": "BidSuccess",
      "type": "event"
    },
    {
      "inputs": [
        {
          "internalType": "uint256",
          "name": "",
          "type": "uint256"
        },
        {
          "internalType": "uint256",
          "name": "",
          "type": "uint256"
        }
      ],
      "name": "auctionBids",
      "outputs": [
        {
          "internalType": "address payable",
          "name": "from",
          "type": "address"
        },
        {
          "internalType": "uint256",
          "name": "amount",
          "type": "uint256"
        }
      ],
      "stateMutability": "view",
      "type": "function",
      "constant": true
    },
    {
      "inputs": [
        {
          "internalType": "address",
          "name": "",
          "type": "address"
        },
        {
          "internalType": "uint256",
          "name": "",
          "type": "uint256"
        }
      ],
      "name": "auctionOwner",
      "outputs": [
        {
          "internalType": "uint256",
          "name": "",
          "type": "uint256"
        }
      ],
      "stateMutability": "view",
      "type": "function",
      "constant": true
    },
    {
      "inputs": [
        {
          "internalType": "uint256",
          "name": "",
          "type": "uint256"
        }
      ],
      "name": "auctions",
      "outputs": [
        {
          "internalType": "string",
          "name": "name",
          "type": "string"
        },
        {
          "internalType": "uint256",
          "name": "endTime",
          "type": "uint256"
        },
        {
          "internalType": "uint256",
          "name": "startPrice",
          "type": "uint256"
        },
        {
          "internalType": "string",
          "name": "metadata",
          "type": "string"
        },
        {
          "internalType": "uint256",
          "name": "deedId",
          "type": "uint256"
        },
        {
          "internalType": "address",
          "name": "deedRepositoryAddress",
          "type": "address"
        },
        {
          "internalType": "address payable",
          "name": "owner",
          "type": "address"
        },
        {
          "internalType": "bool",
          "name": "active",
          "type": "bool"
        },
        {
          "internalType": "bool",
          "name": "finalized",
          "type": "bool"
        }
      ],
      "stateMutability": "view",
      "type": "function",
      "constant": true
    },
    {
      "stateMutability": "payable",
      "type": "receive",
      "payable": true
    },
    {
      "inputs": [
        {
          "internalType": "address",
          "name": "_deedRepositoryAddress",
          "type": "address"
        },
        {
          "internalType": "uint256",
          "name": "_deedId",
          "type": "uint256"
        },
        {
          "internalType": "string",
          "name": "_auctionTitle",
          "type": "string"
        },
        {
          "internalType": "string",
          "name": "_metadata",
          "type": "string"
        },
        {
          "internalType": "uint256",
          "name": "_startPrice",
          "type": "uint256"
        },
        {
          "internalType": "uint256",
          "name": "_endTime",
          "type": "uint256"
        }
      ],
      "name": "createAuction",
      "outputs": [
        {
          "internalType": "bool",
          "name": "",
          "type": "bool"
        }
      ],
      "stateMutability": "nonpayable",
      "type": "function"
    },
    {
      "inputs": [
        {
          "internalType": "uint256",
          "name": "_auctionId",
          "type": "uint256"
        }
      ],
      "name": "bidOnAuction",
      "outputs": [],
      "stateMutability": "payable",
      "type": "function",
      "payable": true
    },
    {
      "inputs": [
        {
          "internalType": "uint256",
          "name": "_auctionId",
          "type": "uint256"
        }
      ],
      "name": "cancelAuction",
      "outputs": [],
      "stateMutability": "nonpayable",
      "type": "function"
    },
    {
      "inputs": [
        {
          "internalType": "uint256",
          "name": "_auctionId",
          "type": "uint256"
        }
      ],
      "name": "finalizeAuction",
      "outputs": [],
      "stateMutability": "nonpayable",
      "type": "function"
    }
  ],
  "bytecode": "0x608060405234801561001057600080fd5b506121bd806100206000396000f3fe6080604052600436106100745760003560e01c806396b5a7551161004e57806396b5a75514610158578063c8756cda14610181578063e1b96581146101be578063e8083863146101fb576100b4565b806326b7aeea146100b9578063571a26a0146100d55780635f93de491461011a576100b4565b366100b4576040517f08c379a00000000000000000000000000000000000000000000000000000000081526004016100ab90611c21565b60405180910390fd5b600080fd5b6100d360048036038101906100ce919061178c565b610224565b005b3480156100e157600080fd5b506100fc60048036038101906100f7919061178c565b6106b0565b60405161011199989796959493929190611ae6565b60405180910390f35b34801561012657600080fd5b50610141600480360381019061013c91906117b5565b610878565b60405161014f929190611a42565b60405180910390f35b34801561016457600080fd5b5061017f600480360381019061017a919061178c565b6108d9565b005b34801561018d57600080fd5b506101a860048036038101906101a39190611697565b610cd8565b6040516101b59190611d01565b60405180910390f35b3480156101ca57600080fd5b506101e560048036038101906101e091906116d3565b610d09565b6040516101f29190611acb565b60405180910390f35b34801561020757600080fd5b50610222600480360381019061021d919061178c565b61108e565b005b60003490506000808381548110610264577f4e487b7100000000000000000000000000000000000000000000000000000000600052603260045260246000fd5b906000526020600020906007020190503373ffffffffffffffffffffffffffffffffffffffff168160060160009054906101000a900473ffffffffffffffffffffffffffffffffffffffff1673ffffffffffffffffffffffffffffffffffffffff161415610307576040517f08c379a00000000000000000000000000000000000000000000000000000000081526004016102fe90611c81565b60405180910390fd5b806001015442111561034e576040517f08c379a000000000000000000000000000000000000000000000000000000000815260040161034590611bc1565b60405180910390fd5b8060060160149054906101000a900460ff1661039f576040517f08c379a000000000000000000000000000000000000000000000000000000000815260040161039690611be1565b60405180910390fd5b6000600160008581526020019081526020016000208054905090506000826002015490506103cb6114f4565b60008311156104ae57600160008781526020019081526020016000206001846103f49190611d99565b8154811061042b577f4e487b7100000000000000000000000000000000000000000000000000000000600052603260045260246000fd5b90600052602060002090600202016040518060400160405290816000820160009054906101000a900473ffffffffffffffffffffffffffffffffffffffff1673ffffffffffffffffffffffffffffffffffffffff1673ffffffffffffffffffffffffffffffffffffffff1681526020016001820154815250509050806020015191505b8185116104f0576040517f08c379a00000000000000000000000000000000000000000000000000000000081526004016104e790611ba1565b60405180910390fd5b60008311156105af576000816000015173ffffffffffffffffffffffffffffffffffffffff16826020015160405161052790611a2d565b60006040518083038185875af1925050503d8060008114610564576040519150601f19603f3d011682016040523d82523d6000602084013e610569565b606091505b50509050806105ad576040517f08c379a00000000000000000000000000000000000000000000000000000000081526004016105a490611ca1565b60405180910390fd5b505b600060405180604001604052803373ffffffffffffffffffffffffffffffffffffffff1681526020018781525090506001600088815260200190815260200160002081908060018154018082558091505060019003906000526020600020906002020160009091909190915060008201518160000160006101000a81548173ffffffffffffffffffffffffffffffffffffffff021916908373ffffffffffffffffffffffffffffffffffffffff1602179055506020820151816001015550507f5762e6a7d331cd17a1761e94de3ea3b85e90ee6cdd9d1204e361cc650689d463338860405161069f929190611aa2565b60405180910390a150505050505050565b600081815481106106c057600080fd5b90600052602060002090600702016000915090508060000180546106e390611e69565b80601f016020809104026020016040519081016040528092919081815260200182805461070f90611e69565b801561075c5780601f106107315761010080835404028352916020019161075c565b820191906000526020600020905b81548152906001019060200180831161073f57829003601f168201915b50505050509080600101549080600201549080600301805461077d90611e69565b80601f01602080910402602001604051908101604052809291908181526020018280546107a990611e69565b80156107f65780601f106107cb576101008083540402835291602001916107f6565b820191906000526020600020905b8154815290600101906020018083116107d957829003601f168201915b5050505050908060040154908060050160009054906101000a900473ffffffffffffffffffffffffffffffffffffffff16908060060160009054906101000a900473ffffffffffffffffffffffffffffffffffffffff16908060060160149054906101000a900460ff16908060060160159054906101000a900460ff16905089565b6001602052816000526040600020818154811061089457600080fd5b9060005260206000209060020201600091509150508060000160009054906101000a900473ffffffffffffffffffffffffffffffffffffffff16908060010154905082565b803373ffffffffffffffffffffffffffffffffffffffff166000828154811061092b577f4e487b7100000000000000000000000000000000000000000000000000000000600052603260045260246000fd5b906000526020600020906007020160060160009054906101000a900473ffffffffffffffffffffffffffffffffffffffff1673ffffffffffffffffffffffffffffffffffffffff16146109b3576040517f08c379a00000000000000000000000000000000000000000000000000000000081526004016109aa90611c41565b60405180910390fd5b60008083815481106109ee577f4e487b7100000000000000000000000000000000000000000000000000000000600052603260045260246000fd5b906000526020600020906007020190508060060160149054906101000a900460ff16610a4f576040517f08c379a0000000000000000000000000000000000000000000000000000000008152600401610a4690611be1565b60405180910390fd5b6000600160008581526020019081526020016000208054905090506000811115610c1e57600060016000868152602001908152602001600020600183610a959190611d99565b81548110610acc577f4e487b7100000000000000000000000000000000000000000000000000000000600052603260045260246000fd5b90600052602060002090600202016040518060400160405290816000820160009054906101000a900473ffffffffffffffffffffffffffffffffffffffff1673ffffffffffffffffffffffffffffffffffffffff1673ffffffffffffffffffffffffffffffffffffffff168152602001600182015481525050905060008360060160009054906101000a900473ffffffffffffffffffffffffffffffffffffffff1673ffffffffffffffffffffffffffffffffffffffff168260200151604051610b9590611a2d565b60006040518083038185875af1925050503d8060008114610bd2576040519150601f19603f3d011682016040523d82523d6000602084013e610bd7565b606091505b5050905080610c1b576040517f08c379a0000000000000000000000000000000000000000000000000000000008152600401610c1290611cc1565b60405180910390fd5b50505b610c76308360060160009054906101000a900473ffffffffffffffffffffffffffffffffffffffff168460050160009054906101000a900473ffffffffffffffffffffffffffffffffffffffff168560040154611405565b15610cd25760008260060160146101000a81548160ff0219169083151502179055507f39e6c898ce035bbacd9ba4f9753534f8c9f976e0ff70be83cfe887f235afa1d33385604051610cc9929190611aa2565b60405180910390a15b50505050565b60026020528160005260406000208181548110610cf457600080fd5b90600052602060002001600091509150505481565b6000868660008273ffffffffffffffffffffffffffffffffffffffff16636352211e836040518263ffffffff1660e01b8152600401610d489190611d01565b60206040518083038186803b158015610d6057600080fd5b505afa158015610d74573d6000803e3d6000fd5b505050506040513d601f19601f82011682018060405250810190610d98919061166e565b90503073ffffffffffffffffffffffffffffffffffffffff168173ffffffffffffffffffffffffffffffffffffffff1614610e08576040517f08c379a0000000000000000000000000000000000000000000000000000000008152600401610dff90611b81565b60405180910390fd5b60008080549050905060006040518061012001604052808b81526020018881526020018981526020018a81526020018c81526020018d73ffffffffffffffffffffffffffffffffffffffff1681526020013373ffffffffffffffffffffffffffffffffffffffff16815260200160011515815260200160001515815250905060008190806001815401808255809150506001900390600052602060002090600702016000909190919091506000820151816000019080519060200190610ecf929190611524565b5060208201518160010155604082015181600201556060820151816003019080519060200190610f00929190611524565b506080820151816004015560a08201518160050160006101000a81548173ffffffffffffffffffffffffffffffffffffffff021916908373ffffffffffffffffffffffffffffffffffffffff16021790555060c08201518160060160006101000a81548173ffffffffffffffffffffffffffffffffffffffff021916908373ffffffffffffffffffffffffffffffffffffffff16021790555060e08201518160060160146101000a81548160ff0219169083151502179055506101008201518160060160156101000a81548160ff0219169083151502179055505050600260003373ffffffffffffffffffffffffffffffffffffffff1673ffffffffffffffffffffffffffffffffffffffff1681526020019081526020016000208290806001815401808255809150506001900390600052602060002001600090919091909150557f3249a06bd478adf780bb7930214ad005e9cfa517d63221c0b77f27199d1a58b33383604051611073929190611aa2565b60405180910390a16001955050505050509695505050505050565b60008082815481106110c9577f4e487b7100000000000000000000000000000000000000000000000000000000600052603260045260246000fd5b906000526020600020906007020190508060010154421015611120576040517f08c379a000000000000000000000000000000000000000000000000000000000815260040161111790611c01565b60405180910390fd5b8060060160159054906101000a900460ff1615611172576040517f08c379a000000000000000000000000000000000000000000000000000000000815260040161116990611c61565b60405180910390fd5b60006001600084815260200190815260200160002080549050905060008114156111a45761119f836108d9565b611400565b6000600160008581526020019081526020016000206001836111c69190611d99565b815481106111fd577f4e487b7100000000000000000000000000000000000000000000000000000000600052603260045260246000fd5b90600052602060002090600202016040518060400160405290816000820160009054906101000a900473ffffffffffffffffffffffffffffffffffffffff1673ffffffffffffffffffffffffffffffffffffffff1673ffffffffffffffffffffffffffffffffffffffff168152602001600182015481525050905060008360060160009054906101000a900473ffffffffffffffffffffffffffffffffffffffff1673ffffffffffffffffffffffffffffffffffffffff1682602001516040516112c690611a2d565b60006040518083038185875af1925050503d8060008114611303576040519150601f19603f3d011682016040523d82523d6000602084013e611308565b606091505b505090508061134c576040517f08c379a000000000000000000000000000000000000000000000000000000000815260040161134390611ce1565b60405180910390fd5b6113843083600001518660050160009054906101000a900473ffffffffffffffffffffffffffffffffffffffff168760040154611405565b156113fd5760008460060160146101000a81548160ff02191690831515021790555060018460060160156101000a81548160ff0219169083151502179055507f357afab190ee87fe0ef1c717f2728d2904d9e415a069d99f4d9382873cb3279d33866040516113f4929190611aa2565b60405180910390a15b50505b505050565b6000808390508073ffffffffffffffffffffffffffffffffffffffff1663095ea7b386856040518363ffffffff1660e01b8152600401611446929190611aa2565b600060405180830381600087803b15801561146057600080fd5b505af1158015611474573d6000803e3d6000fd5b505050508073ffffffffffffffffffffffffffffffffffffffff166323b872dd8787866040518463ffffffff1660e01b81526004016114b593929190611a6b565b600060405180830381600087803b1580156114cf57600080fd5b505af11580156114e3573d6000803e3d6000fd5b505050506001915050949350505050565b6040518060400160405280600073ffffffffffffffffffffffffffffffffffffffff168152602001600081525090565b82805461153090611e69565b90600052602060002090601f0160209004810192826115525760008555611599565b82601f1061156b57805160ff1916838001178555611599565b82800160010185558215611599579182015b8281111561159857825182559160200191906001019061157d565b5b5090506115a691906115aa565b5090565b5b808211156115c35760008160009055506001016115ab565b5090565b60006115da6115d584611d41565b611d1c565b9050828152602081018484840111156115f257600080fd5b6115fd848285611e27565b509392505050565b60008135905061161481612159565b92915050565b60008151905061162981612159565b92915050565b600082601f83011261164057600080fd5b81356116508482602086016115c7565b91505092915050565b60008135905061166881612170565b92915050565b60006020828403121561168057600080fd5b600061168e8482850161161a565b91505092915050565b600080604083850312156116aa57600080fd5b60006116b885828601611605565b92505060206116c985828601611659565b9150509250929050565b60008060008060008060c087890312156116ec57600080fd5b60006116fa89828a01611605565b965050602061170b89828a01611659565b955050604087013567ffffffffffffffff81111561172857600080fd5b61173489828a0161162f565b945050606087013567ffffffffffffffff81111561175157600080fd5b61175d89828a0161162f565b935050608061176e89828a01611659565b92505060a061177f89828a01611659565b9150509295509295509295565b60006020828403121561179e57600080fd5b60006117ac84828501611659565b91505092915050565b600080604083850312156117c857600080fd5b60006117d685828601611659565b92505060206117e785828601611659565b9150509250929050565b6117fa81611ddf565b82525050565b61180981611dcd565b82525050565b61181881611df1565b82525050565b600061182982611d72565b6118338185611d88565b9350611843818560208601611e36565b61184c81611f59565b840191505092915050565b6000611864601e83611d88565b915061186f82611f6a565b602082019050919050565b6000611887601283611d88565b915061189282611f93565b602082019050919050565b60006118aa601183611d88565b91506118b582611fbc565b602082019050919050565b60006118cd601583611d88565b91506118d882611fe5565b602082019050919050565b60006118f0601983611d88565b91506118fb8261200e565b602082019050919050565b6000611913601b83611d88565b915061191e82612037565b602082019050919050565b6000611936601583611d88565b915061194182612060565b602082019050919050565b6000611959601c83611d88565b915061196482612089565b602082019050919050565b600061197c601083611d88565b9150611987826120b2565b602082019050919050565b600061199f600083611d7d565b91506119aa826120db565b600082019050919050565b60006119c2602083611d88565b91506119cd826120de565b602082019050919050565b60006119e5601c83611d88565b91506119f082612107565b602082019050919050565b6000611a08602083611d88565b9150611a1382612130565b602082019050919050565b611a2781611e1d565b82525050565b6000611a3882611992565b9150819050919050565b6000604082019050611a5760008301856117f1565b611a646020830184611a1e565b9392505050565b6000606082019050611a806000830186611800565b611a8d6020830185611800565b611a9a6040830184611a1e565b949350505050565b6000604082019050611ab76000830185611800565b611ac46020830184611a1e565b9392505050565b6000602082019050611ae0600083018461180f565b92915050565b6000610120820190508181036000830152611b01818c61181e565b9050611b10602083018b611a1e565b611b1d604083018a611a1e565b8181036060830152611b2f818961181e565b9050611b3e6080830188611a1e565b611b4b60a0830187611800565b611b5860c08301866117f1565b611b6560e083018561180f565b611b7361010083018461180f565b9a9950505050505050505050565b60006020820190508181036000830152611b9a81611857565b9050919050565b60006020820190508181036000830152611bba8161187a565b9050919050565b60006020820190508181036000830152611bda8161189d565b9050919050565b60006020820190508181036000830152611bfa816118c0565b9050919050565b60006020820190508181036000830152611c1a816118e3565b9050919050565b60006020820190508181036000830152611c3a81611906565b9050919050565b60006020820190508181036000830152611c5a81611929565b9050919050565b60006020820190508181036000830152611c7a8161194c565b9050919050565b60006020820190508181036000830152611c9a8161196f565b9050919050565b60006020820190508181036000830152611cba816119b5565b9050919050565b60006020820190508181036000830152611cda816119d8565b9050919050565b60006020820190508181036000830152611cfa816119fb565b9050919050565b6000602082019050611d166000830184611a1e565b92915050565b6000611d26611d37565b9050611d328282611e9b565b919050565b6000604051905090565b600067ffffffffffffffff821115611d5c57611d5b611f2a565b5b611d6582611f59565b9050602081019050919050565b600081519050919050565b600081905092915050565b600082825260208201905092915050565b6000611da482611e1d565b9150611daf83611e1d565b925082821015611dc257611dc1611ecc565b5b828203905092915050565b6000611dd882611dfd565b9050919050565b6000611dea82611dfd565b9050919050565b60008115159050919050565b600073ffffffffffffffffffffffffffffffffffffffff82169050919050565b6000819050919050565b82818337600083830152505050565b60005b83811015611e54578082015181840152602081019050611e39565b83811115611e63576000848401525b50505050565b60006002820490506001821680611e8157607f821691505b60208210811415611e9557611e94611efb565b5b50919050565b611ea482611f59565b810181811067ffffffffffffffff82111715611ec357611ec2611f2a565b5b80604052505050565b7f4e487b7100000000000000000000000000000000000000000000000000000000600052601160045260246000fd5b7f4e487b7100000000000000000000000000000000000000000000000000000000600052602260045260246000fd5b7f4e487b7100000000000000000000000000000000000000000000000000000000600052604160045260246000fd5b6000601f19601f8301169050919050565b7f436f6e7472616374206973206e6f74207468652064656564206f776e65720000600082015250565b7f42696420616d6f756e7420746f6f206c6f770000000000000000000000000000600082015250565b7f41756374696f6e2068617320656e646564000000000000000000000000000000600082015250565b7f41756374696f6e206973206e6f74206163746976650000000000000000000000600082015250565b7f41756374696f6e20686173206e6f7420656e6465642079657400000000000000600082015250565b7f446972656374207061796d656e7473206e6f7420616c6c6f7765640000000000600082015250565b7f4e6f74207468652061756374696f6e206f776e65720000000000000000000000600082015250565b7f41756374696f6e20697320616c72656164792066696e616c697a656400000000600082015250565b7f4f776e65722063616e6e6f742062696400000000000000000000000000000000600082015250565b50565b7f526566756e6420746f2070726576696f757320626964646572206661696c6564600082015250565b7f526566756e6420746f206c61737420626964646572206661696c656400000000600082015250565b7f5472616e7366657220746f2061756374696f6e206f776e6572206661696c6564600082015250565b61216281611dcd565b811461216d57600080fd5b50565b61217981611e1d565b811461218457600080fd5b5056fea26469706673582212209d6c14056344603623107ea240940221423a4acc47cefdcf1b2e95b272f2017964736f6c63430008010033",
  "immutableReferences": {},
  "source": "// - The `Auction` struct is declared as `memory` in several functions like `bidOnAuction`, `cancelAuction`, and `finalizeAuction`. This means you are working on a local copy of the auction and not modifying the actual data in storage. You should use `storage` instead to modify the state of the auction within these functions. \n\n// **Refunding Bidders:**\n// - In the refund logic, you correctly use the `.call` method for transferring Ether. However, in the `finalizeAuction` and `cancelAuction` functions, the `revert(\"Refund failed\");` message should be adjusted to reflect that it's the transfer to the auction owner or bidder that failed, not a refund.\n\n// **Edge Cases for Canceling and Finalizing Auctions:**\n// - It's good to add conditions for whether an auction has already been finalized or canceled. For example, in `finalizeAuction`, check if the auction is already finalized before allowing the function to proceed. Similarly, ensure canceled auctions cannot be finalized.\n\n// - Use `storage` instead of `memory` where you are modifying the auction data.\n\n// - **Storage instead of memory**: In `bidOnAuction`, `cancelAuction`, and `finalizeAuction`, I switched from `memory` to `storage` when dealing with the `Auction` struct to ensure that i am working with the actual auction data on the blockchain.\n\n// SPDX-License-Identifier: MIT\npragma solidity ^0.8.0;\n\nimport \"./DeedRepository.sol\";\n\ncontract AuctionRepository {\n  struct Bid {\n    address payable from;\n    uint256 amount;\n  }\n\n  struct Auction {\n    string name;\n    uint256 endTime;\n    uint256 startPrice;\n    string metadata;\n    uint256 deedId;\n    address deedRepositoryAddress;\n    address payable owner;\n    bool active;\n    bool finalized;\n  }\n\n\t// Array storing all auctions\n\tAuction[] public auctions;\n\t// Mapping from auction index to user bids array\n\tmapping(uint256 => Bid[]) public auctionBids;\n\t// Mapping from owner to a list/array of owned auctions\n\tmapping(address => uint[]) public auctionOwner;\n\n\tevent BidSuccess(address _from, uint _auctionId);\n\tevent AuctionCreated(address _owner, uint _auctionId);\n\tevent AuctionCanceled(address _owner, uint _auctionId);\n\tevent AuctionFinalized(address _finalizer, uint _auctionId);\n\n\t/**\n  * @dev Guarantees msg.sender is owner of the given auction\n  * @param _auctionId uint ID of the auction to validate its ownership belongs to msg.sender\n  */\n\tmodifier isOwner(uint _auctionId) {\n\t\trequire(auctions[_auctionId].owner == msg.sender, \"Not the auction owner\");\n\t\t_;\n\t}\n\n\t/**\n  * @dev Guarantees this contract is owner of the given deed/token\n  * @param _deedRepositoryAddress address of the deed repository to validate from\n  * @param _deedId uint256 ID of the deed which has been registered in the deed repository\n  */\n\tmodifier contractIsDeedOwner(address _deedRepositoryAddress, uint256 _deedId) {\n\t\taddress deedOwner = DeedRepository(_deedRepositoryAddress).ownerOf(_deedId);\n\t\trequire(deedOwner == address(this), \"Contract is not the deed owner\");\n\t\t_;\n\t}\n\n\t/**\n  * @dev Creates an auction with the given informatin\n  * @param _deedRepositoryAddress address of the DeedRepository contract\n  * @param _deedId uint256 of the deed registered in DeedRepository\n  * @param _auctionTitle string containing auction title\n  * @param _metadata string containing auction metadata \n  * @param _startPrice uint256 starting price of the auction\n  * @param _endTime uint is the timestamp in which the auction expires\n  * @return bool whether the auction is created\n  */\n\tfunction createAuction(\n\t\taddress _deedRepositoryAddress,\n\t\tuint256 _deedId,\n\t\tstring memory _auctionTitle,\n\t\tstring memory _metadata,\n\t\tuint256 _startPrice,\n\t\tuint _endTime\n\t) public contractIsDeedOwner(_deedRepositoryAddress, _deedId) returns (bool) {\n\t\t\tuint auctionId = auctions.length;\n\n\t\tAuction memory newAuction = Auction({\n\t\t\tname: _auctionTitle,\n\t\t\tendTime: _endTime,\n\t\t\tstartPrice: _startPrice,\n\t\t\tmetadata: _metadata,\n\t\t\tdeedId: _deedId,\n\t\t\tdeedRepositoryAddress: _deedRepositoryAddress,\n\t\t\towner: payable(msg.sender),\n\t\t\tactive: true,\n\t\t\tfinalized: false\n\t\t});\n\n\t\tauctions.push(newAuction);\n\t\tauctionOwner[msg.sender].push(auctionId);\n\n\t\temit AuctionCreated(msg.sender, auctionId);\n\t\treturn true;\n\t}\n\n\t/**\n  * @dev Bidder sends bid on an auction\n  * @dev Auction should be active and not ended\n  * @dev Refund previous bidder if a new bid is valid and placed.\n  * @param _auctionId uint ID of the created auction\n  */\n\tfunction bidOnAuction(uint _auctionId) external payable {\n\t\t//store this very bid amount contained in msg.value\n\t\tuint256 ethAmountSent = msg.value;\n\t\tAuction storage myAuction = auctions[_auctionId];\n\n\t\t// owner can't bid on their auctions\n\t\trequire(myAuction.owner != msg.sender, \"Owner cannot bid\");\n\t\t// reject if auction is expired\n\t\trequire(block.timestamp <= myAuction.endTime, \"Auction has ended\");\n\t\t// reject if bid is inactive\n\t\trequire(myAuction.active, \"Auction is not active\");\n\n\t\t/* track previous bids and get current bid amount\n\t\tif not available revert to bid start price*/\n\t\tuint bidsLength = auctionBids[_auctionId].length;\n\t\tuint256 minimumBidAmount = myAuction.startPrice;\n\t\t// last bid details\n\t\tBid memory lastBid;\n\n\t\t//if there are previous bids, retrieve the last bid \n\t\t// and set minimum bid requirement\n\t\tif (bidsLength > 0) {\n\t\t\tlastBid = auctionBids[_auctionId][bidsLength - 1];\n\t\t\tminimumBidAmount = lastBid.amount;\n\t\t}\n\n\t\t//if this very bid amount is lower than the minimum bid amount\n\t\trequire(ethAmountSent > minimumBidAmount, \"Bid amount too low\");\n\n\t\t// refund the last bidder since your bid amount is higher\n\t\tif (bidsLength > 0) {\n\t\t\t(bool success, ) = lastBid.from.call{value: lastBid.amount}(\"\");\n\t\t\tif (!success) {\n\t\t\t\trevert(\"Refund to previous bidder failed\");\n\t\t\t}\n\t\t}\n\n\t\tBid memory newBid = Bid({\n\t\t\tfrom: payable(msg.sender),\n\t\t\tamount: ethAmountSent\n\t\t});\n\n\t\t// store your new bid then adds this new bid to the auction\n\t\tauctionBids[_auctionId].push(newBid);\n\n\t\temit BidSuccess(msg.sender, _auctionId);\n\t}\n\n\tfunction cancelAuction(uint _auctionId) public isOwner(_auctionId) {\n\t\tAuction storage myAuction = auctions[_auctionId];\n\t\trequire(myAuction.active, \"Auction is not active\");\n\n\t\tuint bidsLength = auctionBids[_auctionId].length;\n\n\t\tif (bidsLength > 0) {\n\t\t\tBid memory lastBid = auctionBids[_auctionId][bidsLength - 1];\n\t\t\t(bool success, ) = myAuction.owner.call{value: lastBid.amount}(\"\");\n\t\t\tif (!success) {\n\t\t\t\trevert(\"Refund to last bidder failed\");\n\t\t\t}\n\t\t}\n\n\t\tif (approveAndTransfer(address(this), myAuction.owner, myAuction.deedRepositoryAddress, myAuction.deedId)) {\n\t\t\tmyAuction.active = false;\n\t\t\temit AuctionCanceled(msg.sender, _auctionId);\n\t\t}\n\t}\n\n\tfunction finalizeAuction(uint _auctionId) public {\n\t\tAuction storage myAuction = auctions[_auctionId];\n\t\trequire(block.timestamp >= myAuction.endTime, \"Auction has not ended yet\");\n\t\trequire(!myAuction.finalized, \"Auction is already finalized\");\n\n\t\tuint bidsLength = auctionBids[_auctionId].length;\n\n\t\tif (bidsLength == 0) {\n\t\t\tcancelAuction(_auctionId);\n\t\t} else {\n\t\t\tBid memory lastBid = auctionBids[_auctionId][bidsLength - 1];\n\t\t\t(bool success, ) = myAuction.owner.call{value: lastBid.amount}(\"\");\n\t\t\tif (!success) {\n\t\t\t\trevert(\"Transfer to auction owner failed\");\n\t\t\t}\n\n\t\t\tif (approveAndTransfer(address(this), lastBid.from, myAuction.deedRepositoryAddress, myAuction.deedId)) {\n\t\t\t\tmyAuction.active = false;\n\t\t\t\tmyAuction.finalized = true;\n\t\t\t\temit AuctionFinalized(msg.sender, _auctionId);\n\t\t\t}\n\t\t}\n\t}\n\n\tfunction approveAndTransfer(\n\t\taddress _from,\n\t\taddress _to,\n\t\taddress _deedRepositoryAddress,\n\t\tuint256 _deedId\n\t) internal returns (bool) {\n\t\tDeedRepository remoteContract = DeedRepository(_deedRepositoryAddress);\n\t\tremoteContract.approve(_to, _deedId);\n\t\tremoteContract.transferFrom(_from, _to, _deedId);\n\t\treturn true;\n\t}\n\n\treceive() external payable {\n\t\trevert(\"Direct payments not allowed\");\n\t}\n}\n",
  "sourcePath": "/home/jide/Desktop/auction-dapp/backend/contracts/AuctionRepository.sol",
  "compiler": {
    "name": "solc",
    "version": "0.8.1+commit.df193b15.Emscripten.clang"
  },
  "schemaVersion": "3.4.16",
  "updatedAt": "2024-09-23T06:30:45.491Z",
  "networkType": "ethereum",
  "devdoc": {
    "kind": "dev",
    "methods": {
      "bidOnAuction(uint256)": {
        "details": "Bidder sends bid on an auctionAuction should be active and not endedRefund previous bidder if a new bid is valid and placed.",
        "params": {
          "_auctionId": "uint ID of the created auction"
        }
      },
      "createAuction(address,uint256,string,string,uint256,uint256)": {
        "details": "Creates an auction with the given informatin",
        "params": {
          "_auctionTitle": "string containing auction title",
          "_deedId": "uint256 of the deed registered in DeedRepository",
          "_deedRepositoryAddress": "address of the DeedRepository contract",
          "_endTime": "uint is the timestamp in which the auction expires",
          "_metadata": "string containing auction metadata ",
          "_startPrice": "uint256 starting price of the auction"
        },
        "returns": {
          "_0": "bool whether the auction is created"
        }
      }
    },
    "version": 1
  },
  "userdoc": {
    "kind": "user",
    "methods": {},
    "version": 1
  }
}