{
  "contractName": "DeedRepository",
  "abi": [
    {
      "inputs": [
        {
          "internalType": "string",
          "name": "_contractName",
          "type": "string"
        },
        {
          "internalType": "string",
          "name": "_contractSymbol",
          "type": "string"
        }
      ],
      "stateMutability": "nonpayable",
      "type": "constructor"
    },
    {
      "anonymous": false,
      "inputs": [
        {
          "indexed": true,
          "internalType": "address",
          "name": "owner",
          "type": "address"
        },
        {
          "indexed": true,
          "internalType": "address",
          "name": "approved",
          "type": "address"
        },
        {
          "indexed": true,
          "internalType": "uint256",
          "name": "tokenId",
          "type": "uint256"
        }
      ],
      "name": "Approval",
      "type": "event"
    },
    {
      "anonymous": false,
      "inputs": [
        {
          "indexed": true,
          "internalType": "address",
          "name": "owner",
          "type": "address"
        },
        {
          "indexed": true,
          "internalType": "address",
          "name": "operator",
          "type": "address"
        },
        {
          "indexed": false,
          "internalType": "bool",
          "name": "approved",
          "type": "bool"
        }
      ],
      "name": "ApprovalForAll",
      "type": "event"
    },
    {
      "anonymous": false,
      "inputs": [
        {
          "indexed": false,
          "internalType": "uint256",
          "name": "_fromTokenId",
          "type": "uint256"
        },
        {
          "indexed": false,
          "internalType": "uint256",
          "name": "_toTokenId",
          "type": "uint256"
        }
      ],
      "name": "BatchMetadataUpdate",
      "type": "event"
    },
    {
      "anonymous": false,
      "inputs": [
        {
          "indexed": false,
          "internalType": "address",
          "name": "_by",
          "type": "address"
        },
        {
          "indexed": false,
          "internalType": "uint256",
          "name": "_deedTokenId",
          "type": "uint256"
        }
      ],
      "name": "DeedRegistered",
      "type": "event"
    },
    {
      "anonymous": false,
      "inputs": [
        {
          "indexed": false,
          "internalType": "uint256",
          "name": "_tokenId",
          "type": "uint256"
        }
      ],
      "name": "MetadataUpdate",
      "type": "event"
    },
    {
      "anonymous": false,
      "inputs": [
        {
          "indexed": true,
          "internalType": "address",
          "name": "from",
          "type": "address"
        },
        {
          "indexed": true,
          "internalType": "address",
          "name": "to",
          "type": "address"
        },
        {
          "indexed": true,
          "internalType": "uint256",
          "name": "tokenId",
          "type": "uint256"
        }
      ],
      "name": "Transfer",
      "type": "event"
    },
    {
      "inputs": [
        {
          "internalType": "address",
          "name": "to",
          "type": "address"
        },
        {
          "internalType": "uint256",
          "name": "tokenId",
          "type": "uint256"
        }
      ],
      "name": "approve",
      "outputs": [],
      "stateMutability": "nonpayable",
      "type": "function"
    },
    {
      "inputs": [
        {
          "internalType": "address",
          "name": "owner",
          "type": "address"
        }
      ],
      "name": "balanceOf",
      "outputs": [
        {
          "internalType": "uint256",
          "name": "",
          "type": "uint256"
        }
      ],
      "stateMutability": "view",
      "type": "function",
      "constant": true
    },
    {
      "inputs": [
        {
          "internalType": "uint256",
          "name": "tokenId",
          "type": "uint256"
        }
      ],
      "name": "getApproved",
      "outputs": [
        {
          "internalType": "address",
          "name": "",
          "type": "address"
        }
      ],
      "stateMutability": "view",
      "type": "function",
      "constant": true
    },
    {
      "inputs": [
        {
          "internalType": "address",
          "name": "owner",
          "type": "address"
        },
        {
          "internalType": "address",
          "name": "operator",
          "type": "address"
        }
      ],
      "name": "isApprovedForAll",
      "outputs": [
        {
          "internalType": "bool",
          "name": "",
          "type": "bool"
        }
      ],
      "stateMutability": "view",
      "type": "function",
      "constant": true
    },
    {
      "inputs": [],
      "name": "name",
      "outputs": [
        {
          "internalType": "string",
          "name": "",
          "type": "string"
        }
      ],
      "stateMutability": "view",
      "type": "function",
      "constant": true
    },
    {
      "inputs": [
        {
          "internalType": "uint256",
          "name": "tokenId",
          "type": "uint256"
        }
      ],
      "name": "ownerOf",
      "outputs": [
        {
          "internalType": "address",
          "name": "",
          "type": "address"
        }
      ],
      "stateMutability": "view",
      "type": "function",
      "constant": true
    },
    {
      "inputs": [
        {
          "internalType": "address",
          "name": "from",
          "type": "address"
        },
        {
          "internalType": "address",
          "name": "to",
          "type": "address"
        },
        {
          "internalType": "uint256",
          "name": "tokenId",
          "type": "uint256"
        }
      ],
      "name": "safeTransferFrom",
      "outputs": [],
      "stateMutability": "nonpayable",
      "type": "function"
    },
    {
      "inputs": [
        {
          "internalType": "address",
          "name": "from",
          "type": "address"
        },
        {
          "internalType": "address",
          "name": "to",
          "type": "address"
        },
        {
          "internalType": "uint256",
          "name": "tokenId",
          "type": "uint256"
        },
        {
          "internalType": "bytes",
          "name": "data",
          "type": "bytes"
        }
      ],
      "name": "safeTransferFrom",
      "outputs": [],
      "stateMutability": "nonpayable",
      "type": "function"
    },
    {
      "inputs": [
        {
          "internalType": "address",
          "name": "operator",
          "type": "address"
        },
        {
          "internalType": "bool",
          "name": "approved",
          "type": "bool"
        }
      ],
      "name": "setApprovalForAll",
      "outputs": [],
      "stateMutability": "nonpayable",
      "type": "function"
    },
    {
      "inputs": [
        {
          "internalType": "bytes4",
          "name": "interfaceId",
          "type": "bytes4"
        }
      ],
      "name": "supportsInterface",
      "outputs": [
        {
          "internalType": "bool",
          "name": "",
          "type": "bool"
        }
      ],
      "stateMutability": "view",
      "type": "function",
      "constant": true
    },
    {
      "inputs": [],
      "name": "symbol",
      "outputs": [
        {
          "internalType": "string",
          "name": "",
          "type": "string"
        }
      ],
      "stateMutability": "view",
      "type": "function",
      "constant": true
    },
    {
      "inputs": [
        {
          "internalType": "uint256",
          "name": "tokenId",
          "type": "uint256"
        }
      ],
      "name": "tokenURI",
      "outputs": [
        {
          "internalType": "string",
          "name": "",
          "type": "string"
        }
      ],
      "stateMutability": "view",
      "type": "function",
      "constant": true
    },
    {
      "inputs": [
        {
          "internalType": "address",
          "name": "from",
          "type": "address"
        },
        {
          "internalType": "address",
          "name": "to",
          "type": "address"
        },
        {
          "internalType": "uint256",
          "name": "tokenId",
          "type": "uint256"
        }
      ],
      "name": "transferFrom",
      "outputs": [],
      "stateMutability": "nonpayable",
      "type": "function"
    },
    {
      "inputs": [
        {
          "internalType": "uint256",
          "name": "_tokenId",
          "type": "uint256"
        },
        {
          "internalType": "string",
          "name": "_uri",
          "type": "string"
        }
      ],
      "name": "registerDeed",
      "outputs": [],
      "stateMutability": "nonpayable",
      "type": "function"
    }
  ],
  "bytecode": "0x60806040523480156200001157600080fd5b5060405162002d8638038062002d86833981810160405281019062000037919062000197565b818181600090805190602001906200005192919062000075565b5080600190805190602001906200006a92919062000075565b50505050506200037a565b82805462000083906200029f565b90600052602060002090601f016020900481019282620000a75760008555620000f3565b82601f10620000c257805160ff1916838001178555620000f3565b82800160010185558215620000f3579182015b82811115620000f2578251825591602001919060010190620000d5565b5b50905062000102919062000106565b5090565b5b808211156200012157600081600090555060010162000107565b5090565b60006200013c620001368462000233565b6200020a565b9050828152602081018484840111156200015557600080fd5b6200016284828562000269565b509392505050565b600082601f8301126200017c57600080fd5b81516200018e84826020860162000125565b91505092915050565b60008060408385031215620001ab57600080fd5b600083015167ffffffffffffffff811115620001c657600080fd5b620001d4858286016200016a565b925050602083015167ffffffffffffffff811115620001f257600080fd5b62000200858286016200016a565b9150509250929050565b60006200021662000229565b9050620002248282620002d5565b919050565b6000604051905090565b600067ffffffffffffffff8211156200025157620002506200033a565b5b6200025c8262000369565b9050602081019050919050565b60005b83811015620002895780820151818401526020810190506200026c565b8381111562000299576000848401525b50505050565b60006002820490506001821680620002b857607f821691505b60208210811415620002cf57620002ce6200030b565b5b50919050565b620002e08262000369565b810181811067ffffffffffffffff821117156200030257620003016200033a565b5b80604052505050565b7f4e487b7100000000000000000000000000000000000000000000000000000000600052602260045260246000fd5b7f4e487b7100000000000000000000000000000000000000000000000000000000600052604160045260246000fd5b6000601f19601f8301169050919050565b6129fc806200038a6000396000f3fe608060405234801561001057600080fd5b50600436106100ea5760003560e01c806370a082311161008c578063b88d4fde11610066578063b88d4fde1461025b578063c87b56dd14610277578063e985e9c5146102a7578063f72439dd146102d7576100ea565b806370a08231146101f157806395d89b4114610221578063a22cb4651461023f576100ea565b8063095ea7b3116100c8578063095ea7b31461016d57806323b872dd1461018957806342842e0e146101a55780636352211e146101c1576100ea565b806301ffc9a7146100ef57806306fdde031461011f578063081812fc1461013d575b600080fd5b61010960048036038101906101049190611e2d565b6102f3565b6040516101169190612224565b60405180910390f35b610127610354565b604051610134919061223f565b60405180910390f35b61015760048036038101906101529190611e7f565b6103e6565b6040516101649190612194565b60405180910390f35b61018760048036038101906101829190611df1565b61042c565b005b6101a3600480360381019061019e9190611ceb565b610544565b005b6101bf60048036038101906101ba9190611ceb565b6105a4565b005b6101db60048036038101906101d69190611e7f565b6105c4565b6040516101e89190612194565b60405180910390f35b61020b60048036038101906102069190611c86565b61064b565b60405161021891906123e1565b60405180910390f35b610229610703565b604051610236919061223f565b60405180910390f35b61025960048036038101906102549190611db5565b610795565b005b61027560048036038101906102709190611d3a565b6107ab565b005b610291600480360381019061028c9190611e7f565b61080d565b60405161029e919061223f565b60405180910390f35b6102c160048036038101906102bc9190611caf565b610920565b6040516102ce9190612224565b60405180910390f35b6102f160048036038101906102ec9190611ea8565b6109b4565b005b6000634906490660e01b7bffffffffffffffffffffffffffffffffffffffffffffffffffffffff1916827bffffffffffffffffffffffffffffffffffffffffffffffffffffffff1916148061034d575061034c82610a05565b5b9050919050565b6060600080546103639061257c565b80601f016020809104026020016040519081016040528092919081815260200182805461038f9061257c565b80156103dc5780601f106103b1576101008083540402835291602001916103dc565b820191906000526020600020905b8154815290600101906020018083116103bf57829003601f168201915b5050505050905090565b60006103f182610ae7565b6004600083815260200190815260200160002060009054906101000a900473ffffffffffffffffffffffffffffffffffffffff169050919050565b6000610437826105c4565b90508073ffffffffffffffffffffffffffffffffffffffff168373ffffffffffffffffffffffffffffffffffffffff1614156104a8576040517f08c379a000000000000000000000000000000000000000000000000000000000815260040161049f906123a1565b60405180910390fd5b8073ffffffffffffffffffffffffffffffffffffffff166104c7610b32565b73ffffffffffffffffffffffffffffffffffffffff1614806104f657506104f5816104f0610b32565b610920565b5b610535576040517f08c379a000000000000000000000000000000000000000000000000000000000815260040161052c906123c1565b60405180910390fd5b61053f8383610b3a565b505050565b61055561054f610b32565b82610bf3565b610594576040517f08c379a000000000000000000000000000000000000000000000000000000000815260040161058b90612261565b60405180910390fd5b61059f838383610c88565b505050565b6105bf838383604051806020016040528060008152506107ab565b505050565b6000806105d083610f82565b9050600073ffffffffffffffffffffffffffffffffffffffff168173ffffffffffffffffffffffffffffffffffffffff161415610642576040517f08c379a000000000000000000000000000000000000000000000000000000000815260040161063990612381565b60405180910390fd5b80915050919050565b60008073ffffffffffffffffffffffffffffffffffffffff168273ffffffffffffffffffffffffffffffffffffffff1614156106bc576040517f08c379a00000000000000000000000000000000000000000000000000000000081526004016106b390612321565b60405180910390fd5b600360008373ffffffffffffffffffffffffffffffffffffffff1673ffffffffffffffffffffffffffffffffffffffff168152602001908152602001600020549050919050565b6060600180546107129061257c565b80601f016020809104026020016040519081016040528092919081815260200182805461073e9061257c565b801561078b5780601f106107605761010080835404028352916020019161078b565b820191906000526020600020905b81548152906001019060200180831161076e57829003601f168201915b5050505050905090565b6107a76107a0610b32565b8383610fbf565b5050565b6107bc6107b6610b32565b83610bf3565b6107fb576040517f08c379a00000000000000000000000000000000000000000000000000000000081526004016107f290612261565b60405180910390fd5b6108078484848461112c565b50505050565b606061081882610ae7565b60006006600084815260200190815260200160002080546108389061257c565b80601f01602080910402602001604051908101604052809291908181526020018280546108649061257c565b80156108b15780601f10610886576101008083540402835291602001916108b1565b820191906000526020600020905b81548152906001019060200180831161089457829003601f168201915b5050505050905060006108c2611188565b90506000815114156108d857819250505061091b565b60008251111561090d5780826040516020016108f5929190612170565b6040516020818303038152906040529250505061091b565b6109168461119f565b925050505b919050565b6000600560008473ffffffffffffffffffffffffffffffffffffffff1673ffffffffffffffffffffffffffffffffffffffff16815260200190815260200160002060008373ffffffffffffffffffffffffffffffffffffffff1673ffffffffffffffffffffffffffffffffffffffff16815260200190815260200160002060009054906101000a900460ff16905092915050565b6109be3383611207565b6109c88282611425565b7f32cc5b866d6a5990a7f987020b639157969cb963b9beb2cdf41df22ab152df3533836040516109f99291906121fb565b60405180910390a15050565b60007f80ac58cd000000000000000000000000000000000000000000000000000000007bffffffffffffffffffffffffffffffffffffffffffffffffffffffff1916827bffffffffffffffffffffffffffffffffffffffffffffffffffffffff19161480610ad057507f5b5e139f000000000000000000000000000000000000000000000000000000007bffffffffffffffffffffffffffffffffffffffffffffffffffffffff1916827bffffffffffffffffffffffffffffffffffffffffffffffffffffffff1916145b80610ae05750610adf82611433565b5b9050919050565b610af08161149d565b610b2f576040517f08c379a0000000000000000000000000000000000000000000000000000000008152600401610b2690612381565b60405180910390fd5b50565b600033905090565b816004600083815260200190815260200160002060006101000a81548173ffffffffffffffffffffffffffffffffffffffff021916908373ffffffffffffffffffffffffffffffffffffffff160217905550808273ffffffffffffffffffffffffffffffffffffffff16610bad836105c4565b73ffffffffffffffffffffffffffffffffffffffff167f8c5be1e5ebec7d5bd14f71427d1e84f3dd0314c0f7b2291e5b200ac8c7c3b92560405160405180910390a45050565b600080610bff836105c4565b90508073ffffffffffffffffffffffffffffffffffffffff168473ffffffffffffffffffffffffffffffffffffffff161480610c415750610c408185610920565b5b80610c7f57508373ffffffffffffffffffffffffffffffffffffffff16610c67846103e6565b73ffffffffffffffffffffffffffffffffffffffff16145b91505092915050565b8273ffffffffffffffffffffffffffffffffffffffff16610ca8826105c4565b73ffffffffffffffffffffffffffffffffffffffff1614610cfe576040517f08c379a0000000000000000000000000000000000000000000000000000000008152600401610cf5906122a1565b60405180910390fd5b600073ffffffffffffffffffffffffffffffffffffffff168273ffffffffffffffffffffffffffffffffffffffff161415610d6e576040517f08c379a0000000000000000000000000000000000000000000000000000000008152600401610d65906122e1565b60405180910390fd5b610d7b83838360016114de565b8273ffffffffffffffffffffffffffffffffffffffff16610d9b826105c4565b73ffffffffffffffffffffffffffffffffffffffff1614610df1576040517f08c379a0000000000000000000000000000000000000000000000000000000008152600401610de8906122a1565b60405180910390fd5b6004600082815260200190815260200160002060006101000a81549073ffffffffffffffffffffffffffffffffffffffff02191690556001600360008573ffffffffffffffffffffffffffffffffffffffff1673ffffffffffffffffffffffffffffffffffffffff168152602001908152602001600020600082825403925050819055506001600360008473ffffffffffffffffffffffffffffffffffffffff1673ffffffffffffffffffffffffffffffffffffffff16815260200190815260200160002060008282540192505081905550816002600083815260200190815260200160002060006101000a81548173ffffffffffffffffffffffffffffffffffffffff021916908373ffffffffffffffffffffffffffffffffffffffff160217905550808273ffffffffffffffffffffffffffffffffffffffff168473ffffffffffffffffffffffffffffffffffffffff167fddf252ad1be2c89b69c2b068fc378daa952ba7f163c4a11628f55a4df523b3ef60405160405180910390a4610f7d83838360016114e4565b505050565b60006002600083815260200190815260200160002060009054906101000a900473ffffffffffffffffffffffffffffffffffffffff169050919050565b8173ffffffffffffffffffffffffffffffffffffffff168373ffffffffffffffffffffffffffffffffffffffff16141561102e576040517f08c379a000000000000000000000000000000000000000000000000000000000815260040161102590612301565b60405180910390fd5b80600560008573ffffffffffffffffffffffffffffffffffffffff1673ffffffffffffffffffffffffffffffffffffffff16815260200190815260200160002060008473ffffffffffffffffffffffffffffffffffffffff1673ffffffffffffffffffffffffffffffffffffffff16815260200190815260200160002060006101000a81548160ff0219169083151502179055508173ffffffffffffffffffffffffffffffffffffffff168373ffffffffffffffffffffffffffffffffffffffff167f17307eab39ab6107e8899845ad3d59bd9653f200f220920489ca2b5937696c318360405161111f9190612224565b60405180910390a3505050565b611137848484610c88565b611143848484846114ea565b611182576040517f08c379a000000000000000000000000000000000000000000000000000000000815260040161117990612281565b60405180910390fd5b50505050565b606060405180602001604052806000815250905090565b60606111aa82610ae7565b60006111b4611188565b905060008151116111d457604051806020016040528060008152506111ff565b806111de84611681565b6040516020016111ef929190612170565b6040516020818303038152906040525b915050919050565b600073ffffffffffffffffffffffffffffffffffffffff168273ffffffffffffffffffffffffffffffffffffffff161415611277576040517f08c379a000000000000000000000000000000000000000000000000000000000815260040161126e90612361565b60405180910390fd5b6112808161149d565b156112c0576040517f08c379a00000000000000000000000000000000000000000000000000000000081526004016112b7906122c1565b60405180910390fd5b6112ce6000838360016114de565b6112d78161149d565b15611317576040517f08c379a000000000000000000000000000000000000000000000000000000000815260040161130e906122c1565b60405180910390fd5b6001600360008473ffffffffffffffffffffffffffffffffffffffff1673ffffffffffffffffffffffffffffffffffffffff16815260200190815260200160002060008282540192505081905550816002600083815260200190815260200160002060006101000a81548173ffffffffffffffffffffffffffffffffffffffff021916908373ffffffffffffffffffffffffffffffffffffffff160217905550808273ffffffffffffffffffffffffffffffffffffffff16600073ffffffffffffffffffffffffffffffffffffffff167fddf252ad1be2c89b69c2b068fc378daa952ba7f163c4a11628f55a4df523b3ef60405160405180910390a46114216000838360016114e4565b5050565b61142f82826117a5565b5050565b60007f01ffc9a7000000000000000000000000000000000000000000000000000000007bffffffffffffffffffffffffffffffffffffffffffffffffffffffff1916827bffffffffffffffffffffffffffffffffffffffffffffffffffffffff1916149050919050565b60008073ffffffffffffffffffffffffffffffffffffffff166114bf83610f82565b73ffffffffffffffffffffffffffffffffffffffff1614159050919050565b50505050565b50505050565b600061150b8473ffffffffffffffffffffffffffffffffffffffff16611850565b15611674578373ffffffffffffffffffffffffffffffffffffffff1663150b7a02611534610b32565b8786866040518563ffffffff1660e01b815260040161155694939291906121af565b602060405180830381600087803b15801561157057600080fd5b505af19250505080156115a157506040513d601f19601f8201168201806040525081019061159e9190611e56565b60015b611624573d80600081146115d1576040519150601f19603f3d011682016040523d82523d6000602084013e6115d6565b606091505b5060008151141561161c576040517f08c379a000000000000000000000000000000000000000000000000000000000815260040161161390612281565b60405180910390fd5b805181602001fd5b63150b7a0260e01b7bffffffffffffffffffffffffffffffffffffffffffffffffffffffff1916817bffffffffffffffffffffffffffffffffffffffffffffffffffffffff191614915050611679565b600190505b949350505050565b60606000600161169084611873565b01905060008167ffffffffffffffff8111156116d5577f4e487b7100000000000000000000000000000000000000000000000000000000600052604160045260246000fd5b6040519080825280601f01601f1916602001820160405280156117075781602001600182028036833780820191505090505b509050600082602001820190505b60011561179a578080600190039150507f3031323334353637383961626364656600000000000000000000000000000000600a86061a8153600a8581611784577f4e487b7100000000000000000000000000000000000000000000000000000000600052601260045260246000fd5b04945060008514156117955761179a565b611715565b819350505050919050565b6117ae8261149d565b6117ed576040517f08c379a00000000000000000000000000000000000000000000000000000000081526004016117e490612341565b60405180910390fd5b80600660008481526020019081526020016000209080519060200190611814929190611aaa565b507ff8e1a15aba9398e019f0b49df1a4fde98ee17ae345cb5f6b5e2c27f5033e8ce78260405161184491906123e1565b60405180910390a15050565b6000808273ffffffffffffffffffffffffffffffffffffffff163b119050919050565b600080600090507a184f03e93ff9f4daa797ed6e38ed64bf6a1f01000000000000000083106118f7577a184f03e93ff9f4daa797ed6e38ed64bf6a1f01000000000000000083816118ed577f4e487b7100000000000000000000000000000000000000000000000000000000600052601260045260246000fd5b0492506040810190505b6d04ee2d6d415b85acef8100000000831061195a576d04ee2d6d415b85acef81000000008381611950577f4e487b7100000000000000000000000000000000000000000000000000000000600052601260045260246000fd5b0492506020810190505b662386f26fc1000083106119af57662386f26fc1000083816119a5577f4e487b7100000000000000000000000000000000000000000000000000000000600052601260045260246000fd5b0492506010810190505b6305f5e10083106119fe576305f5e10083816119f4577f4e487b7100000000000000000000000000000000000000000000000000000000600052601260045260246000fd5b0492506008810190505b6127108310611a49576127108381611a3f577f4e487b7100000000000000000000000000000000000000000000000000000000600052601260045260246000fd5b0492506004810190505b60648310611a925760648381611a88577f4e487b7100000000000000000000000000000000000000000000000000000000600052601260045260246000fd5b0492506002810190505b600a8310611aa1576001810190505b80915050919050565b828054611ab69061257c565b90600052602060002090601f016020900481019282611ad85760008555611b1f565b82601f10611af157805160ff1916838001178555611b1f565b82800160010185558215611b1f579182015b82811115611b1e578251825591602001919060010190611b03565b5b509050611b2c9190611b30565b5090565b5b80821115611b49576000816000905550600101611b31565b5090565b6000611b60611b5b84612421565b6123fc565b905082815260208101848484011115611b7857600080fd5b611b8384828561253a565b509392505050565b6000611b9e611b9984612452565b6123fc565b905082815260208101848484011115611bb657600080fd5b611bc184828561253a565b509392505050565b600081359050611bd88161296a565b92915050565b600081359050611bed81612981565b92915050565b600081359050611c0281612998565b92915050565b600081519050611c1781612998565b92915050565b600082601f830112611c2e57600080fd5b8135611c3e848260208601611b4d565b91505092915050565b600082601f830112611c5857600080fd5b8135611c68848260208601611b8b565b91505092915050565b600081359050611c80816129af565b92915050565b600060208284031215611c9857600080fd5b6000611ca684828501611bc9565b91505092915050565b60008060408385031215611cc257600080fd5b6000611cd085828601611bc9565b9250506020611ce185828601611bc9565b9150509250929050565b600080600060608486031215611d0057600080fd5b6000611d0e86828701611bc9565b9350506020611d1f86828701611bc9565b9250506040611d3086828701611c71565b9150509250925092565b60008060008060808587031215611d5057600080fd5b6000611d5e87828801611bc9565b9450506020611d6f87828801611bc9565b9350506040611d8087828801611c71565b925050606085013567ffffffffffffffff811115611d9d57600080fd5b611da987828801611c1d565b91505092959194509250565b60008060408385031215611dc857600080fd5b6000611dd685828601611bc9565b9250506020611de785828601611bde565b9150509250929050565b60008060408385031215611e0457600080fd5b6000611e1285828601611bc9565b9250506020611e2385828601611c71565b9150509250929050565b600060208284031215611e3f57600080fd5b6000611e4d84828501611bf3565b91505092915050565b600060208284031215611e6857600080fd5b6000611e7684828501611c08565b91505092915050565b600060208284031215611e9157600080fd5b6000611e9f84828501611c71565b91505092915050565b60008060408385031215611ebb57600080fd5b6000611ec985828601611c71565b925050602083013567ffffffffffffffff811115611ee657600080fd5b611ef285828601611c47565b9150509250929050565b611f05816124c6565b82525050565b611f14816124d8565b82525050565b6000611f2582612483565b611f2f8185612499565b9350611f3f818560208601612549565b611f488161263d565b840191505092915050565b6000611f5e8261248e565b611f6881856124aa565b9350611f78818560208601612549565b611f818161263d565b840191505092915050565b6000611f978261248e565b611fa181856124bb565b9350611fb1818560208601612549565b80840191505092915050565b6000611fca602d836124aa565b9150611fd58261264e565b604082019050919050565b6000611fed6032836124aa565b9150611ff88261269d565b604082019050919050565b60006120106025836124aa565b915061201b826126ec565b604082019050919050565b6000612033601c836124aa565b915061203e8261273b565b602082019050919050565b60006120566024836124aa565b915061206182612764565b604082019050919050565b60006120796019836124aa565b9150612084826127b3565b602082019050919050565b600061209c6029836124aa565b91506120a7826127dc565b604082019050919050565b60006120bf602e836124aa565b91506120ca8261282b565b604082019050919050565b60006120e26020836124aa565b91506120ed8261287a565b602082019050919050565b60006121056018836124aa565b9150612110826128a3565b602082019050919050565b60006121286021836124aa565b9150612133826128cc565b604082019050919050565b600061214b603d836124aa565b91506121568261291b565b604082019050919050565b61216a81612530565b82525050565b600061217c8285611f8c565b91506121888284611f8c565b91508190509392505050565b60006020820190506121a96000830184611efc565b92915050565b60006080820190506121c46000830187611efc565b6121d16020830186611efc565b6121de6040830185612161565b81810360608301526121f08184611f1a565b905095945050505050565b60006040820190506122106000830185611efc565b61221d6020830184612161565b9392505050565b60006020820190506122396000830184611f0b565b92915050565b600060208201905081810360008301526122598184611f53565b905092915050565b6000602082019050818103600083015261227a81611fbd565b9050919050565b6000602082019050818103600083015261229a81611fe0565b9050919050565b600060208201905081810360008301526122ba81612003565b9050919050565b600060208201905081810360008301526122da81612026565b9050919050565b600060208201905081810360008301526122fa81612049565b9050919050565b6000602082019050818103600083015261231a8161206c565b9050919050565b6000602082019050818103600083015261233a8161208f565b9050919050565b6000602082019050818103600083015261235a816120b2565b9050919050565b6000602082019050818103600083015261237a816120d5565b9050919050565b6000602082019050818103600083015261239a816120f8565b9050919050565b600060208201905081810360008301526123ba8161211b565b9050919050565b600060208201905081810360008301526123da8161213e565b9050919050565b60006020820190506123f66000830184612161565b92915050565b6000612406612417565b905061241282826125ae565b919050565b6000604051905090565b600067ffffffffffffffff82111561243c5761243b61260e565b5b6124458261263d565b9050602081019050919050565b600067ffffffffffffffff82111561246d5761246c61260e565b5b6124768261263d565b9050602081019050919050565b600081519050919050565b600081519050919050565b600082825260208201905092915050565b600082825260208201905092915050565b600081905092915050565b60006124d182612510565b9050919050565b60008115159050919050565b60007fffffffff0000000000000000000000000000000000000000000000000000000082169050919050565b600073ffffffffffffffffffffffffffffffffffffffff82169050919050565b6000819050919050565b82818337600083830152505050565b60005b8381101561256757808201518184015260208101905061254c565b83811115612576576000848401525b50505050565b6000600282049050600182168061259457607f821691505b602082108114156125a8576125a76125df565b5b50919050565b6125b78261263d565b810181811067ffffffffffffffff821117156125d6576125d561260e565b5b80604052505050565b7f4e487b7100000000000000000000000000000000000000000000000000000000600052602260045260246000fd5b7f4e487b7100000000000000000000000000000000000000000000000000000000600052604160045260246000fd5b6000601f19601f8301169050919050565b7f4552433732313a2063616c6c6572206973206e6f7420746f6b656e206f776e6560008201527f72206f7220617070726f76656400000000000000000000000000000000000000602082015250565b7f4552433732313a207472616e7366657220746f206e6f6e20455243373231526560008201527f63656976657220696d706c656d656e7465720000000000000000000000000000602082015250565b7f4552433732313a207472616e736665722066726f6d20696e636f72726563742060008201527f6f776e6572000000000000000000000000000000000000000000000000000000602082015250565b7f4552433732313a20746f6b656e20616c7265616479206d696e74656400000000600082015250565b7f4552433732313a207472616e7366657220746f20746865207a65726f2061646460008201527f7265737300000000000000000000000000000000000000000000000000000000602082015250565b7f4552433732313a20617070726f766520746f2063616c6c657200000000000000600082015250565b7f4552433732313a2061646472657373207a65726f206973206e6f74206120766160008201527f6c6964206f776e65720000000000000000000000000000000000000000000000602082015250565b7f45524337323155524953746f726167653a2055524920736574206f66206e6f6e60008201527f6578697374656e7420746f6b656e000000000000000000000000000000000000602082015250565b7f4552433732313a206d696e7420746f20746865207a65726f2061646472657373600082015250565b7f4552433732313a20696e76616c696420746f6b656e2049440000000000000000600082015250565b7f4552433732313a20617070726f76616c20746f2063757272656e74206f776e6560008201527f7200000000000000000000000000000000000000000000000000000000000000602082015250565b7f4552433732313a20617070726f76652063616c6c6572206973206e6f7420746f60008201527f6b656e206f776e6572206f7220617070726f76656420666f7220616c6c000000602082015250565b612973816124c6565b811461297e57600080fd5b50565b61298a816124d8565b811461299557600080fd5b50565b6129a1816124e4565b81146129ac57600080fd5b50565b6129b881612530565b81146129c357600080fd5b5056fea2646970667358221220298de2fb405f3fe4b72a17f21728d4325ad938fb16af51b00d0f6398bf12608964736f6c63430008010033",
  "immutableReferences": {},
  "source": "// SPDX-License-Identifier: MIT\npragma solidity ^0.8.0;\n\nimport \"@openzeppelin/contracts/token/ERC721/ERC721.sol\";\nimport \"@openzeppelin/contracts/token/ERC721/extensions/ERC721URIStorage.sol\";\n\n/**\n* @title Repository of ERC721 Deeds\n* This contract contains the list of deeds registered by users.\n* This is a demo to show how tokens (deeds) can be minted and added\n* to the repository.\n*/\n\ncontract DeedRepository is ERC721URIStorage {\n  /**\n  * @dev Created a DeedRepository with a name and symbol\n  * @param _contractName string represents the name of the repository\n  * @param _contractSymbol string represents the symbol of the repository\n  */\n  constructor(string memory _contractName, string memory _contractSymbol) ERC721(_contractName, _contractSymbol) {}\n\n  function registerDeed(uint256 _tokenId, string memory _uri) public {\n    _mint(msg.sender, _tokenId);\n    _setDeedMetadata(_tokenId, _uri);  // Now using internal function\n    emit DeedRegistered(msg.sender, _tokenId);\n  }\n\n  /**\n  * @dev Internal function to add metadata to a deed\n  * @param _tokenId represents a specific deed\n  * @param _uri text which describes the characteristics of a given deed\n  */\n  function _setDeedMetadata(uint _tokenId, string memory _uri) internal {\n    _setTokenURI(_tokenId, _uri);  // calling the internal function _setTokenURI\n  }\n\n  /**\n  * @dev Event is triggered if deed/token is registered\n  * @param _by address of the registrar\n  * @param _deedTokenId uint256 represents a specific deed\n  */\n  event DeedRegistered(address _by, uint256 _deedTokenId);\n}",
  "sourcePath": "/home/jide/Desktop/auction-dapp/backend/contracts/DeedRepository.sol",
  "compiler": {
    "name": "solc",
    "version": "0.8.1+commit.df193b15.Emscripten.clang"
  },
  "schemaVersion": "3.4.16",
  "updatedAt": "2024-09-28T15:55:50.638Z",
  "networkType": "ethereum",
  "devdoc": {
    "events": {
      "DeedRegistered(address,uint256)": {
        "details": "Event is triggered if deed/token is registered",
        "params": {
          "_by": "address of the registrar",
          "_deedTokenId": "uint256 represents a specific deed"
        }
      }
    },
    "kind": "dev",
    "methods": {
      "approve(address,uint256)": {
        "details": "See {IERC721-approve}."
      },
      "balanceOf(address)": {
        "details": "See {IERC721-balanceOf}."
      },
      "constructor": {
        "details": "Created a DeedRepository with a name and symbol",
        "params": {
          "_contractName": "string represents the name of the repository",
          "_contractSymbol": "string represents the symbol of the repository"
        }
      },
      "getApproved(uint256)": {
        "details": "See {IERC721-getApproved}."
      },
      "isApprovedForAll(address,address)": {
        "details": "See {IERC721-isApprovedForAll}."
      },
      "name()": {
        "details": "See {IERC721Metadata-name}."
      },
      "ownerOf(uint256)": {
        "details": "See {IERC721-ownerOf}."
      },
      "safeTransferFrom(address,address,uint256)": {
        "details": "See {IERC721-safeTransferFrom}."
      },
      "safeTransferFrom(address,address,uint256,bytes)": {
        "details": "See {IERC721-safeTransferFrom}."
      },
      "setApprovalForAll(address,bool)": {
        "details": "See {IERC721-setApprovalForAll}."
      },
      "supportsInterface(bytes4)": {
        "details": "See {IERC165-supportsInterface}"
      },
      "symbol()": {
        "details": "See {IERC721Metadata-symbol}."
      },
      "tokenURI(uint256)": {
        "details": "See {IERC721Metadata-tokenURI}."
      },
      "transferFrom(address,address,uint256)": {
        "details": "See {IERC721-transferFrom}."
      }
    },
    "title": "Repository of ERC721 Deeds This contract contains the list of deeds registered by users. This is a demo to show how tokens (deeds) can be minted and added to the repository.",
    "version": 1
  },
  "userdoc": {
    "kind": "user",
    "methods": {},
    "version": 1
  }
}